{
  "_format": "hh-sol-artifact-1",
  "contractName": "CryptonToken",
  "sourceName": "contracts/Token.sol",
  "abi": [
    {
      "inputs": [
        {
          "internalType": "string",
          "name": "name",
          "type": "string"
        },
        {
          "internalType": "string",
          "name": "symbol",
          "type": "string"
        },
        {
          "internalType": "uint256",
          "name": "_initialsupply",
          "type": "uint256"
        }
      ],
      "stateMutability": "nonpayable",
      "type": "constructor"
    },
    {
      "anonymous": false,
      "inputs": [
        {
          "indexed": true,
          "internalType": "address",
          "name": "caller",
          "type": "address"
        },
        {
          "indexed": false,
          "internalType": "address",
          "name": "account",
          "type": "address"
        }
      ],
      "name": "AddToWhitelist",
      "type": "event"
    },
    {
      "anonymous": false,
      "inputs": [
        {
          "indexed": true,
          "internalType": "address",
          "name": "owner",
          "type": "address"
        },
        {
          "indexed": true,
          "internalType": "address",
          "name": "spender",
          "type": "address"
        },
        {
          "indexed": false,
          "internalType": "uint256",
          "name": "value",
          "type": "uint256"
        }
      ],
      "name": "Approval",
      "type": "event"
    },
    {
      "anonymous": false,
      "inputs": [
        {
          "indexed": true,
          "internalType": "address",
          "name": "caller",
          "type": "address"
        },
        {
          "indexed": false,
          "internalType": "uint256",
          "name": "feeRate",
          "type": "uint256"
        }
      ],
      "name": "ChangeFeeRate",
      "type": "event"
    },
    {
      "anonymous": false,
      "inputs": [
        {
          "indexed": true,
          "internalType": "address",
          "name": "caller",
          "type": "address"
        },
        {
          "indexed": false,
          "internalType": "address",
          "name": "feeRecipient",
          "type": "address"
        }
      ],
      "name": "ChangeFeeRecipient",
      "type": "event"
    },
    {
      "anonymous": false,
      "inputs": [
        {
          "indexed": true,
          "internalType": "address",
          "name": "previousOwner",
          "type": "address"
        },
        {
          "indexed": true,
          "internalType": "address",
          "name": "newOwner",
          "type": "address"
        }
      ],
      "name": "OwnershipTransferred",
      "type": "event"
    },
    {
      "anonymous": false,
      "inputs": [
        {
          "indexed": true,
          "internalType": "address",
          "name": "caller",
          "type": "address"
        },
        {
          "indexed": false,
          "internalType": "address",
          "name": "account",
          "type": "address"
        }
      ],
      "name": "RemoveFromWhitelist",
      "type": "event"
    },
    {
      "anonymous": false,
      "inputs": [
        {
          "indexed": true,
          "internalType": "bytes32",
          "name": "role",
          "type": "bytes32"
        },
        {
          "indexed": true,
          "internalType": "bytes32",
          "name": "previousAdminRole",
          "type": "bytes32"
        },
        {
          "indexed": true,
          "internalType": "bytes32",
          "name": "newAdminRole",
          "type": "bytes32"
        }
      ],
      "name": "RoleAdminChanged",
      "type": "event"
    },
    {
      "anonymous": false,
      "inputs": [
        {
          "indexed": true,
          "internalType": "bytes32",
          "name": "role",
          "type": "bytes32"
        },
        {
          "indexed": true,
          "internalType": "address",
          "name": "account",
          "type": "address"
        },
        {
          "indexed": true,
          "internalType": "address",
          "name": "sender",
          "type": "address"
        }
      ],
      "name": "RoleGranted",
      "type": "event"
    },
    {
      "anonymous": false,
      "inputs": [
        {
          "indexed": true,
          "internalType": "bytes32",
          "name": "role",
          "type": "bytes32"
        },
        {
          "indexed": true,
          "internalType": "address",
          "name": "account",
          "type": "address"
        },
        {
          "indexed": true,
          "internalType": "address",
          "name": "sender",
          "type": "address"
        }
      ],
      "name": "RoleRevoked",
      "type": "event"
    },
    {
      "anonymous": false,
      "inputs": [
        {
          "indexed": true,
          "internalType": "address",
          "name": "from",
          "type": "address"
        },
        {
          "indexed": true,
          "internalType": "address",
          "name": "to",
          "type": "address"
        },
        {
          "indexed": false,
          "internalType": "uint256",
          "name": "value",
          "type": "uint256"
        }
      ],
      "name": "Transfer",
      "type": "event"
    },
    {
      "inputs": [],
      "name": "DEFAULT_ADMIN_ROLE",
      "outputs": [
        {
          "internalType": "bytes32",
          "name": "",
          "type": "bytes32"
        }
      ],
      "stateMutability": "view",
      "type": "function"
    },
    {
      "inputs": [
        {
          "internalType": "address",
          "name": "account",
          "type": "address"
        }
      ],
      "name": "addToWhitelist",
      "outputs": [],
      "stateMutability": "nonpayable",
      "type": "function"
    },
    {
      "inputs": [
        {
          "internalType": "address",
          "name": "owner",
          "type": "address"
        },
        {
          "internalType": "address",
          "name": "spender",
          "type": "address"
        }
      ],
      "name": "allowance",
      "outputs": [
        {
          "internalType": "uint256",
          "name": "",
          "type": "uint256"
        }
      ],
      "stateMutability": "view",
      "type": "function"
    },
    {
      "inputs": [
        {
          "internalType": "address",
          "name": "spender",
          "type": "address"
        },
        {
          "internalType": "uint256",
          "name": "amount",
          "type": "uint256"
        }
      ],
      "name": "approve",
      "outputs": [
        {
          "internalType": "bool",
          "name": "",
          "type": "bool"
        }
      ],
      "stateMutability": "nonpayable",
      "type": "function"
    },
    {
      "inputs": [
        {
          "internalType": "address",
          "name": "account",
          "type": "address"
        }
      ],
      "name": "balanceOf",
      "outputs": [
        {
          "internalType": "uint256",
          "name": "",
          "type": "uint256"
        }
      ],
      "stateMutability": "view",
      "type": "function"
    },
    {
      "inputs": [
        {
          "internalType": "address",
          "name": "from",
          "type": "address"
        },
        {
          "internalType": "uint256",
          "name": "amount",
          "type": "uint256"
        }
      ],
      "name": "burn",
      "outputs": [],
      "stateMutability": "nonpayable",
      "type": "function"
    },
    {
      "inputs": [
        {
          "internalType": "uint256",
          "name": "value",
          "type": "uint256"
        }
      ],
      "name": "changeFeeRate",
      "outputs": [],
      "stateMutability": "nonpayable",
      "type": "function"
    },
    {
      "inputs": [
        {
          "internalType": "address",
          "name": "to",
          "type": "address"
        }
      ],
      "name": "changeFeeRecipient",
      "outputs": [],
      "stateMutability": "nonpayable",
      "type": "function"
    },
    {
      "inputs": [],
      "name": "dao",
      "outputs": [
        {
          "internalType": "address",
          "name": "",
          "type": "address"
        }
      ],
      "stateMutability": "view",
      "type": "function"
    },
    {
      "inputs": [],
      "name": "decimals",
      "outputs": [
        {
          "internalType": "uint8",
          "name": "",
          "type": "uint8"
        }
      ],
      "stateMutability": "view",
      "type": "function"
    },
    {
      "inputs": [
        {
          "internalType": "address",
          "name": "spender",
          "type": "address"
        },
        {
          "internalType": "uint256",
          "name": "subtractedValue",
          "type": "uint256"
        }
      ],
      "name": "decreaseAllowance",
      "outputs": [
        {
          "internalType": "bool",
          "name": "",
          "type": "bool"
        }
      ],
      "stateMutability": "nonpayable",
      "type": "function"
    },
    {
      "inputs": [],
      "name": "getFeeRate",
      "outputs": [
        {
          "internalType": "uint256",
          "name": "",
          "type": "uint256"
        }
      ],
      "stateMutability": "view",
      "type": "function"
    },
    {
      "inputs": [],
      "name": "getFeeRecipient",
      "outputs": [
        {
          "internalType": "address",
          "name": "",
          "type": "address"
        }
      ],
      "stateMutability": "view",
      "type": "function"
    },
    {
      "inputs": [
        {
          "internalType": "bytes32",
          "name": "role",
          "type": "bytes32"
        }
      ],
      "name": "getRoleAdmin",
      "outputs": [
        {
          "internalType": "bytes32",
          "name": "",
          "type": "bytes32"
        }
      ],
      "stateMutability": "view",
      "type": "function"
    },
    {
      "inputs": [
        {
          "internalType": "bytes32",
          "name": "role",
          "type": "bytes32"
        },
        {
          "internalType": "address",
          "name": "account",
          "type": "address"
        }
      ],
      "name": "grantRole",
      "outputs": [],
      "stateMutability": "nonpayable",
      "type": "function"
    },
    {
      "inputs": [
        {
          "internalType": "bytes32",
          "name": "role",
          "type": "bytes32"
        },
        {
          "internalType": "address",
          "name": "account",
          "type": "address"
        }
      ],
      "name": "hasRole",
      "outputs": [
        {
          "internalType": "bool",
          "name": "",
          "type": "bool"
        }
      ],
      "stateMutability": "view",
      "type": "function"
    },
    {
      "inputs": [
        {
          "internalType": "address",
          "name": "spender",
          "type": "address"
        },
        {
          "internalType": "uint256",
          "name": "addedValue",
          "type": "uint256"
        }
      ],
      "name": "increaseAllowance",
      "outputs": [
        {
          "internalType": "bool",
          "name": "",
          "type": "bool"
        }
      ],
      "stateMutability": "nonpayable",
      "type": "function"
    },
    {
      "inputs": [
        {
          "internalType": "address",
          "name": "_dao",
          "type": "address"
        }
      ],
      "name": "initialize",
      "outputs": [],
      "stateMutability": "nonpayable",
      "type": "function"
    },
    {
      "inputs": [
        {
          "internalType": "address",
          "name": "account",
          "type": "address"
        }
      ],
      "name": "isWhitelisted",
      "outputs": [
        {
          "internalType": "bool",
          "name": "",
          "type": "bool"
        }
      ],
      "stateMutability": "view",
      "type": "function"
    },
    {
      "inputs": [
        {
          "internalType": "address",
          "name": "to",
          "type": "address"
        },
        {
          "internalType": "uint256",
          "name": "amount",
          "type": "uint256"
        }
      ],
      "name": "mint",
      "outputs": [],
      "stateMutability": "nonpayable",
      "type": "function"
    },
    {
      "inputs": [],
      "name": "name",
      "outputs": [
        {
          "internalType": "string",
          "name": "",
          "type": "string"
        }
      ],
      "stateMutability": "view",
      "type": "function"
    },
    {
      "inputs": [],
      "name": "owner",
      "outputs": [
        {
          "internalType": "address",
          "name": "",
          "type": "address"
        }
      ],
      "stateMutability": "view",
      "type": "function"
    },
    {
      "inputs": [
        {
          "internalType": "address",
          "name": "account",
          "type": "address"
        }
      ],
      "name": "removeFromWhitelist",
      "outputs": [],
      "stateMutability": "nonpayable",
      "type": "function"
    },
    {
      "inputs": [],
      "name": "renounceOwnership",
      "outputs": [],
      "stateMutability": "nonpayable",
      "type": "function"
    },
    {
      "inputs": [
        {
          "internalType": "bytes32",
          "name": "role",
          "type": "bytes32"
        },
        {
          "internalType": "address",
          "name": "account",
          "type": "address"
        }
      ],
      "name": "renounceRole",
      "outputs": [],
      "stateMutability": "nonpayable",
      "type": "function"
    },
    {
      "inputs": [
        {
          "internalType": "bytes32",
          "name": "role",
          "type": "bytes32"
        },
        {
          "internalType": "address",
          "name": "account",
          "type": "address"
        }
      ],
      "name": "revokeRole",
      "outputs": [],
      "stateMutability": "nonpayable",
      "type": "function"
    },
    {
      "inputs": [
        {
          "internalType": "bytes4",
          "name": "interfaceId",
          "type": "bytes4"
        }
      ],
      "name": "supportsInterface",
      "outputs": [
        {
          "internalType": "bool",
          "name": "",
          "type": "bool"
        }
      ],
      "stateMutability": "view",
      "type": "function"
    },
    {
      "inputs": [],
      "name": "symbol",
      "outputs": [
        {
          "internalType": "string",
          "name": "",
          "type": "string"
        }
      ],
      "stateMutability": "view",
      "type": "function"
    },
    {
      "inputs": [],
      "name": "totalSupply",
      "outputs": [
        {
          "internalType": "uint256",
          "name": "",
          "type": "uint256"
        }
      ],
      "stateMutability": "view",
      "type": "function"
    },
    {
      "inputs": [
        {
          "internalType": "address",
          "name": "recipient",
          "type": "address"
        },
        {
          "internalType": "uint256",
          "name": "amount",
          "type": "uint256"
        }
      ],
      "name": "transfer",
      "outputs": [
        {
          "internalType": "bool",
          "name": "",
          "type": "bool"
        }
      ],
      "stateMutability": "nonpayable",
      "type": "function"
    },
    {
      "inputs": [
        {
          "internalType": "address",
          "name": "sender",
          "type": "address"
        },
        {
          "internalType": "address",
          "name": "recipient",
          "type": "address"
        },
        {
          "internalType": "uint256",
          "name": "amount",
          "type": "uint256"
        }
      ],
      "name": "transferFrom",
      "outputs": [
        {
          "internalType": "bool",
          "name": "",
          "type": "bool"
        }
      ],
      "stateMutability": "nonpayable",
      "type": "function"
    },
    {
      "inputs": [
        {
          "internalType": "address",
          "name": "newOwner",
          "type": "address"
        }
      ],
      "name": "transferOwnership",
      "outputs": [],
      "stateMutability": "nonpayable",
      "type": "function"
    }
  ],
  "bytecode": "0x60806040523480156200001157600080fd5b5060405162001fb038038062001fb08339810160408190526200003491620005b4565b8251839083906200004d90600390602085019062000441565b5080516200006390600490602084019062000441565b505050620000806200007a6200009560201b60201c565b62000099565b6200008c3382620000eb565b505050620006f4565b3390565b600680546001600160a01b038381166001600160a01b0319831681179093556040519116919082907f8be0079c531659141344cd1fd0a4f28419497f9722a3daafe3b4186f6b6457e090600090a35050565b6001600160a01b038216620001475760405162461bcd60e51b815260206004820152601f60248201527f45524332303a206d696e7420746f20746865207a65726f20616464726573730060448201526064015b60405180910390fd5b6200015560008383620001d1565b80600260008282546200016991906200063d565b90915550506001600160a01b03821660009081526020819052604081208054839290620001989084906200063d565b90915550506040518181526001600160a01b0383169060009060008051602062001f908339815191529060200160405180910390a35050565b6001600160a01b0383166000908152600a602052604090205460ff161580156200020357506001600160a01b03831615155b80156200021857506001600160a01b03821615155b15620002dc5760006127106007548362000233919062000658565b6200023f91906200067a565b90506200024d81836200063d565b6001600160a01b0385166000908152602081905260409020541015620002b65760405162461bcd60e51b815260206004820152601560248201527f4e6f7420656e6f75676820746f2070617920666565000000000000000000000060448201526064016200013e565b620002c28482620002e1565b600854620002da906001600160a01b031682620000eb565b505b505050565b6001600160a01b038216620003435760405162461bcd60e51b815260206004820152602160248201527f45524332303a206275726e2066726f6d20746865207a65726f206164647265736044820152607360f81b60648201526084016200013e565b6200035182600083620001d1565b6001600160a01b03821660009081526020819052604090205481811015620003c75760405162461bcd60e51b815260206004820152602260248201527f45524332303a206275726e20616d6f756e7420657863656564732062616c616e604482015261636560f01b60648201526084016200013e565b6001600160a01b0383166000908152602081905260408120838303905560028054849290620003f89084906200069d565b90915550506040518281526000906001600160a01b0385169060008051602062001f908339815191529060200160405180910390a3620002dc836000846001600160e01b038416565b8280546200044f90620006b7565b90600052602060002090601f016020900481019282620004735760008555620004be565b82601f106200048e57805160ff1916838001178555620004be565b82800160010185558215620004be579182015b82811115620004be578251825591602001919060010190620004a1565b50620004cc929150620004d0565b5090565b5b80821115620004cc5760008155600101620004d1565b634e487b7160e01b600052604160045260246000fd5b600082601f8301126200050f57600080fd5b81516001600160401b03808211156200052c576200052c620004e7565b604051601f8301601f19908116603f01168101908282118183101715620005575762000557620004e7565b816040528381526020925086838588010111156200057457600080fd5b600091505b8382101562000598578582018301518183018401529082019062000579565b83821115620005aa5760008385830101525b9695505050505050565b600080600060608486031215620005ca57600080fd5b83516001600160401b0380821115620005e257600080fd5b620005f087838801620004fd565b945060208601519150808211156200060757600080fd5b506200061686828701620004fd565b925050604084015190509250925092565b634e487b7160e01b600052601160045260246000fd5b6000821982111562000653576200065362000627565b500190565b600081600019048311821515161562000675576200067562000627565b500290565b6000826200069857634e487b7160e01b600052601260045260246000fd5b500490565b600082821015620006b257620006b262000627565b500390565b600181811c90821680620006cc57607f821691505b60208210811415620006ee57634e487b7160e01b600052602260045260246000fd5b50919050565b61188c80620007046000396000f3fe608060405234801561001057600080fd5b50600436106101f05760003560e01c8063715018a61161010f578063a457c2d7116100a2578063d547741f11610071578063d547741f14610444578063dd62ed3e14610457578063e43252d714610490578063f2fde38b146104a357600080fd5b8063a457c2d7146103f8578063a9059cbb1461040b578063affca9321461041e578063c4d66de81461043157600080fd5b806391d14854116100de57806391d14854146103c257806395d89b41146103d55780639dc29fac146103dd578063a217fddf146103f057600080fd5b8063715018a61461038e57806384e5eed0146103965780638ab1d6811461039e5780638da5cb5b146103b157600080fd5b8063313ce5671161018757806340c10f191161015657806340c10f19146103165780634162169f146103295780634ccb20c01461035457806370a082311461036557600080fd5b8063313ce567146102b557806336568abe146102c457806339509351146102d75780633af32abf146102ea57600080fd5b806323604071116101c3578063236040711461025757806323b872dd1461026c578063248a9ca31461027f5780632f2ff15d146102a257600080fd5b806301ffc9a7146101f557806306fdde031461021d578063095ea7b31461023257806318160ddd14610245575b600080fd5b610208610203366004611513565b6104b6565b60405190151581526020015b60405180910390f35b6102256104ed565b6040516102149190611569565b6102086102403660046115b8565b61057f565b6002545b604051908152602001610214565b61026a6102653660046115e2565b610595565b005b61020861027a3660046115fd565b61061f565b61024961028d366004611639565b60009081526005602052604090206001015490565b61026a6102b0366004611652565b6106c9565b60405160128152602001610214565b61026a6102d2366004611652565b6106f4565b6102086102e53660046115b8565b610772565b6102086102f83660046115e2565b6001600160a01b03166000908152600a602052604090205460ff1690565b61026a6103243660046115b8565b6107ae565b60095461033c906001600160a01b031681565b6040516001600160a01b039091168152602001610214565b6008546001600160a01b031661033c565b6102496103733660046115e2565b6001600160a01b031660009081526020819052604090205490565b61026a6107e2565b600754610249565b61026a6103ac3660046115e2565b610818565b6006546001600160a01b031661033c565b6102086103d0366004611652565b610895565b6102256108c0565b61026a6103eb3660046115b8565b6108cf565b610249600081565b6102086104063660046115b8565b610903565b6102086104193660046115b8565b61099c565b61026a61042c366004611639565b6109a9565b61026a61043f3660046115e2565b610a0a565b61026a610452366004611652565b610a56565b61024961046536600461167e565b6001600160a01b03918216600090815260016020908152604080832093909416825291909152205490565b61026a61049e3660046115e2565b610a7c565b61026a6104b13660046115e2565b610afc565b60006001600160e01b03198216637965db0b60e01b14806104e757506301ffc9a760e01b6001600160e01b03198316145b92915050565b6060600380546104fc906116a8565b80601f0160208091040260200160405190810160405280929190818152602001828054610528906116a8565b80156105755780601f1061054a57610100808354040283529160200191610575565b820191906000526020600020905b81548152906001019060200180831161055857829003601f168201915b5050505050905090565b600061058c338484610b97565b50600192915050565b6006546001600160a01b031633146105c85760405162461bcd60e51b81526004016105bf906116e3565b60405180910390fd5b600880546001600160a01b0319166001600160a01b03831690811790915560405190815233907f3a08b1c0f89bbe22ae6458a334ff95ccecc840f266c286f188cf29e31f7061ad906020015b60405180910390a250565b600061062c848484610cbb565b6001600160a01b0384166000908152600160209081526040808320338452909152902054828110156106b15760405162461bcd60e51b815260206004820152602860248201527f45524332303a207472616e7366657220616d6f756e74206578636565647320616044820152676c6c6f77616e636560c01b60648201526084016105bf565b6106be8533858403610b97565b506001949350505050565b6000828152600560205260409020600101546106e58133610e96565b6106ef8383610efa565b505050565b6001600160a01b03811633146107645760405162461bcd60e51b815260206004820152602f60248201527f416363657373436f6e74726f6c3a2063616e206f6e6c792072656e6f756e636560448201526e103937b632b9903337b91039b2b63360891b60648201526084016105bf565b61076e8282610f80565b5050565b3360008181526001602090815260408083206001600160a01b0387168452909152812054909161058c9185906107a990869061172e565b610b97565b6006546001600160a01b031633146107d85760405162461bcd60e51b81526004016105bf906116e3565b61076e8282610fe7565b6006546001600160a01b0316331461080c5760405162461bcd60e51b81526004016105bf906116e3565b61081660006110d2565b565b6006546001600160a01b031633146108425760405162461bcd60e51b81526004016105bf906116e3565b6001600160a01b0381166000818152600a6020908152604091829020805460ff19169055905191825233917fd69d323ec27eb997f9c9466b0c1f1f37d65382a7caeee9c9cacaf093d6d0bb579101610614565b60009182526005602090815260408084206001600160a01b0393909316845291905290205460ff1690565b6060600480546104fc906116a8565b6006546001600160a01b031633146108f95760405162461bcd60e51b81526004016105bf906116e3565b61076e8282611124565b3360009081526001602090815260408083206001600160a01b0386168452909152812054828110156109855760405162461bcd60e51b815260206004820152602560248201527f45524332303a2064656372656173656420616c6c6f77616e63652062656c6f77604482015264207a65726f60d81b60648201526084016105bf565b6109923385858403610b97565b5060019392505050565b600061058c338484610cbb565b6006546001600160a01b031633146109d35760405162461bcd60e51b81526004016105bf906116e3565b600781905560405181815233907ff8eccecbad8e0a650eaf97155186f2edac8af95165cfe8f4fcb7e11ea9693efd90602001610614565b6006546001600160a01b03163314610a345760405162461bcd60e51b81526004016105bf906116e3565b600980546001600160a01b0319166001600160a01b0392909216919091179055565b600082815260056020526040902060010154610a728133610e96565b6106ef8383610f80565b6006546001600160a01b03163314610aa65760405162461bcd60e51b81526004016105bf906116e3565b6001600160a01b0381166000818152600a6020908152604091829020805460ff19166001179055905191825233917f1d579ce37763c9894e144fe60df6d85b0eaa341ed20bcb7045de4a9327eb51159101610614565b6006546001600160a01b03163314610b265760405162461bcd60e51b81526004016105bf906116e3565b6001600160a01b038116610b8b5760405162461bcd60e51b815260206004820152602660248201527f4f776e61626c653a206e6577206f776e657220697320746865207a65726f206160448201526564647265737360d01b60648201526084016105bf565b610b94816110d2565b50565b6001600160a01b038316610bf95760405162461bcd60e51b8152602060048201526024808201527f45524332303a20617070726f76652066726f6d20746865207a65726f206164646044820152637265737360e01b60648201526084016105bf565b6001600160a01b038216610c5a5760405162461bcd60e51b815260206004820152602260248201527f45524332303a20617070726f766520746f20746865207a65726f206164647265604482015261737360f01b60648201526084016105bf565b6001600160a01b0383811660008181526001602090815260408083209487168084529482529182902085905590518481527f8c5be1e5ebec7d5bd14f71427d1e84f3dd0314c0f7b2291e5b200ac8c7c3b925910160405180910390a3505050565b6001600160a01b038316610d1f5760405162461bcd60e51b815260206004820152602560248201527f45524332303a207472616e736665722066726f6d20746865207a65726f206164604482015264647265737360d81b60648201526084016105bf565b6001600160a01b038216610d815760405162461bcd60e51b815260206004820152602360248201527f45524332303a207472616e7366657220746f20746865207a65726f206164647260448201526265737360e81b60648201526084016105bf565b610d8c83838361127e565b6001600160a01b03831660009081526020819052604090205481811015610e045760405162461bcd60e51b815260206004820152602660248201527f45524332303a207472616e7366657220616d6f756e7420657863656564732062604482015265616c616e636560d01b60648201526084016105bf565b6001600160a01b03808516600090815260208190526040808220858503905591851681529081208054849290610e3b90849061172e565b92505081905550826001600160a01b0316846001600160a01b03167fddf252ad1be2c89b69c2b068fc378daa952ba7f163c4a11628f55a4df523b3ef84604051610e8791815260200190565b60405180910390a35b50505050565b610ea08282610895565b61076e57610eb8816001600160a01b03166014611370565b610ec3836020611370565b604051602001610ed4929190611746565b60408051601f198184030181529082905262461bcd60e51b82526105bf91600401611569565b610f048282610895565b61076e5760008281526005602090815260408083206001600160a01b03851684529091529020805460ff19166001179055610f3c3390565b6001600160a01b0316816001600160a01b0316837f2f8788117e7eff1d82e926ec794901d17c78024a50270940304540a733656f0d60405160405180910390a45050565b610f8a8282610895565b1561076e5760008281526005602090815260408083206001600160a01b0385168085529252808320805460ff1916905551339285917ff6391f5c32d9c69d2a47ea670b442974b53935d1edc7fd64eb21e047a839171b9190a45050565b6001600160a01b03821661103d5760405162461bcd60e51b815260206004820152601f60248201527f45524332303a206d696e7420746f20746865207a65726f20616464726573730060448201526064016105bf565b6110496000838361127e565b806002600082825461105b919061172e565b90915550506001600160a01b0382166000908152602081905260408120805483929061108890849061172e565b90915550506040518181526001600160a01b038316906000907fddf252ad1be2c89b69c2b068fc378daa952ba7f163c4a11628f55a4df523b3ef9060200160405180910390a35050565b600680546001600160a01b038381166001600160a01b0319831681179093556040519116919082907f8be0079c531659141344cd1fd0a4f28419497f9722a3daafe3b4186f6b6457e090600090a35050565b6001600160a01b0382166111845760405162461bcd60e51b815260206004820152602160248201527f45524332303a206275726e2066726f6d20746865207a65726f206164647265736044820152607360f81b60648201526084016105bf565b6111908260008361127e565b6001600160a01b038216600090815260208190526040902054818110156112045760405162461bcd60e51b815260206004820152602260248201527f45524332303a206275726e20616d6f756e7420657863656564732062616c616e604482015261636560f01b60648201526084016105bf565b6001600160a01b03831660009081526020819052604081208383039055600280548492906112339084906117bb565b90915550506040518281526000906001600160a01b038516907fddf252ad1be2c89b69c2b068fc378daa952ba7f163c4a11628f55a4df523b3ef9060200160405180910390a3505050565b6001600160a01b0383166000908152600a602052604090205460ff161580156112af57506001600160a01b03831615155b80156112c357506001600160a01b03821615155b156106ef576000612710600754836112db91906117d2565b6112e591906117f1565b90506112f1818361172e565b6001600160a01b03851660009081526020819052604090205410156113505760405162461bcd60e51b81526020600482015260156024820152744e6f7420656e6f75676820746f207061792066656560581b60448201526064016105bf565b61135a8482611124565b600854610e90906001600160a01b031682610fe7565b6060600061137f8360026117d2565b61138a90600261172e565b67ffffffffffffffff8111156113a2576113a2611813565b6040519080825280601f01601f1916602001820160405280156113cc576020820181803683370190505b509050600360fc1b816000815181106113e7576113e7611829565b60200101906001600160f81b031916908160001a905350600f60fb1b8160018151811061141657611416611829565b60200101906001600160f81b031916908160001a905350600061143a8460026117d2565b61144590600161172e565b90505b60018111156114bd576f181899199a1a9b1b9c1cb0b131b232b360811b85600f166010811061147957611479611829565b1a60f81b82828151811061148f5761148f611829565b60200101906001600160f81b031916908160001a90535060049490941c936114b68161183f565b9050611448565b50831561150c5760405162461bcd60e51b815260206004820181905260248201527f537472696e67733a20686578206c656e67746820696e73756666696369656e7460448201526064016105bf565b9392505050565b60006020828403121561152557600080fd5b81356001600160e01b03198116811461150c57600080fd5b60005b83811015611558578181015183820152602001611540565b83811115610e905750506000910152565b602081526000825180602084015261158881604085016020870161153d565b601f01601f19169190910160400192915050565b80356001600160a01b03811681146115b357600080fd5b919050565b600080604083850312156115cb57600080fd5b6115d48361159c565b946020939093013593505050565b6000602082840312156115f457600080fd5b61150c8261159c565b60008060006060848603121561161257600080fd5b61161b8461159c565b92506116296020850161159c565b9150604084013590509250925092565b60006020828403121561164b57600080fd5b5035919050565b6000806040838503121561166557600080fd5b823591506116756020840161159c565b90509250929050565b6000806040838503121561169157600080fd5b61169a8361159c565b91506116756020840161159c565b600181811c908216806116bc57607f821691505b602082108114156116dd57634e487b7160e01b600052602260045260246000fd5b50919050565b6020808252818101527f4f776e61626c653a2063616c6c6572206973206e6f7420746865206f776e6572604082015260600190565b634e487b7160e01b600052601160045260246000fd5b6000821982111561174157611741611718565b500190565b7f416363657373436f6e74726f6c3a206163636f756e742000000000000000000081526000835161177e81601785016020880161153d565b7001034b99036b4b9b9b4b733903937b6329607d1b60179184019182015283516117af81602884016020880161153d565b01602801949350505050565b6000828210156117cd576117cd611718565b500390565b60008160001904831182151516156117ec576117ec611718565b500290565b60008261180e57634e487b7160e01b600052601260045260246000fd5b500490565b634e487b7160e01b600052604160045260246000fd5b634e487b7160e01b600052603260045260246000fd5b60008161184e5761184e611718565b50600019019056fea2646970667358221220fcc5a6b7e0b5da3257b722a33ffd66c8cd350608fc1adf022d70d0a3b4c743f864736f6c634300080a0033ddf252ad1be2c89b69c2b068fc378daa952ba7f163c4a11628f55a4df523b3ef",
  "linkReferences": {},
  "deployedLinkReferences": {}
}