{
  "_format": "hh-sol-artifact-1",
  "contractName": "CryptonDAO",
  "sourceName": "contracts/DAO.sol",
  "abi": [
    {
      "inputs": [
        {
          "internalType": "string",
          "name": "_name",
          "type": "string"
        },
        {
          "internalType": "string",
          "name": "_description",
          "type": "string"
        },
        {
          "internalType": "string",
          "name": "_imageURL",
          "type": "string"
        },
        {
          "internalType": "address",
          "name": "_tokenAddress",
          "type": "address"
        },
        {
          "internalType": "uint256",
          "name": "_passingHold",
          "type": "uint256"
        },
        {
          "internalType": "uint256",
          "name": "_votingduration",
          "type": "uint256"
        },
        {
          "internalType": "uint256",
          "name": "_proposaldiposit",
          "type": "uint256"
        },
        {
          "internalType": "bool",
          "name": "_refundfail",
          "type": "bool"
        }
      ],
      "stateMutability": "nonpayable",
      "type": "constructor"
    },
    {
      "anonymous": false,
      "inputs": [
        {
          "indexed": true,
          "internalType": "uint256",
          "name": "propID",
          "type": "uint256"
        },
        {
          "indexed": true,
          "internalType": "address",
          "name": "delegator",
          "type": "address"
        },
        {
          "indexed": true,
          "internalType": "address",
          "name": "delegate",
          "type": "address"
        }
      ],
      "name": "Delegate",
      "type": "event"
    },
    {
      "anonymous": false,
      "inputs": [
        {
          "indexed": true,
          "internalType": "address",
          "name": "account",
          "type": "address"
        },
        {
          "indexed": false,
          "internalType": "uint256",
          "name": "tokenId",
          "type": "uint256"
        }
      ],
      "name": "Deposit",
      "type": "event"
    },
    {
      "anonymous": false,
      "inputs": [
        {
          "indexed": true,
          "internalType": "uint256",
          "name": "propID",
          "type": "uint256"
        },
        {
          "indexed": true,
          "internalType": "address",
          "name": "creator",
          "type": "address"
        },
        {
          "indexed": false,
          "internalType": "string",
          "name": "description",
          "type": "string"
        },
        {
          "indexed": true,
          "internalType": "address",
          "name": "target",
          "type": "address"
        }
      ],
      "name": "NewProposal",
      "type": "event"
    },
    {
      "anonymous": false,
      "inputs": [
        {
          "indexed": true,
          "internalType": "address",
          "name": "previousOwner",
          "type": "address"
        },
        {
          "indexed": true,
          "internalType": "address",
          "name": "newOwner",
          "type": "address"
        }
      ],
      "name": "OwnershipTransferred",
      "type": "event"
    },
    {
      "anonymous": false,
      "inputs": [
        {
          "indexed": true,
          "internalType": "uint256",
          "name": "propID",
          "type": "uint256"
        },
        {
          "indexed": true,
          "internalType": "address",
          "name": "voter",
          "type": "address"
        },
        {
          "indexed": false,
          "internalType": "bool",
          "name": "decision",
          "type": "bool"
        }
      ],
      "name": "Voted",
      "type": "event"
    },
    {
      "anonymous": false,
      "inputs": [
        {
          "indexed": true,
          "internalType": "uint256",
          "name": "id",
          "type": "uint256"
        },
        {
          "indexed": false,
          "internalType": "bool",
          "name": "successful",
          "type": "bool"
        }
      ],
      "name": "VotingFinished",
      "type": "event"
    },
    {
      "anonymous": false,
      "inputs": [
        {
          "indexed": false,
          "internalType": "uint256",
          "name": "newPassingHold",
          "type": "uint256"
        },
        {
          "indexed": false,
          "internalType": "uint256",
          "name": "newVotingPeriod",
          "type": "uint256"
        }
      ],
      "name": "VotingRulesChanged",
      "type": "event"
    },
    {
      "anonymous": false,
      "inputs": [
        {
          "indexed": true,
          "internalType": "address",
          "name": "account",
          "type": "address"
        },
        {
          "indexed": false,
          "internalType": "uint256",
          "name": "tokenId",
          "type": "uint256"
        }
      ],
      "name": "Withdraw",
      "type": "event"
    },
    {
      "inputs": [],
      "name": "DaoName",
      "outputs": [
        {
          "internalType": "string",
          "name": "",
          "type": "string"
        }
      ],
      "stateMutability": "view",
      "type": "function"
    },
    {
      "inputs": [],
      "name": "Description",
      "outputs": [
        {
          "internalType": "string",
          "name": "",
          "type": "string"
        }
      ],
      "stateMutability": "view",
      "type": "function"
    },
    {
      "inputs": [],
      "name": "ImageURL",
      "outputs": [
        {
          "internalType": "string",
          "name": "",
          "type": "string"
        }
      ],
      "stateMutability": "view",
      "type": "function"
    },
    {
      "inputs": [
        {
          "internalType": "string",
          "name": "description",
          "type": "string"
        }
      ],
      "name": "addProposal",
      "outputs": [],
      "stateMutability": "nonpayable",
      "type": "function"
    },
    {
      "inputs": [
        {
          "internalType": "address",
          "name": "newmember",
          "type": "address"
        }
      ],
      "name": "addmember",
      "outputs": [],
      "stateMutability": "nonpayable",
      "type": "function"
    },
    {
      "inputs": [
        {
          "internalType": "address",
          "name": "",
          "type": "address"
        }
      ],
      "name": "balances",
      "outputs": [
        {
          "internalType": "uint256",
          "name": "",
          "type": "uint256"
        }
      ],
      "stateMutability": "view",
      "type": "function"
    },
    {
      "inputs": [
        {
          "internalType": "uint256",
          "name": "_passingHold",
          "type": "uint256"
        },
        {
          "internalType": "uint256",
          "name": "_votingPeriod",
          "type": "uint256"
        }
      ],
      "name": "changeVotingRules",
      "outputs": [],
      "stateMutability": "nonpayable",
      "type": "function"
    },
    {
      "inputs": [
        {
          "internalType": "address",
          "name": "to",
          "type": "address"
        },
        {
          "internalType": "uint256",
          "name": "propID",
          "type": "uint256"
        }
      ],
      "name": "delegate",
      "outputs": [],
      "stateMutability": "nonpayable",
      "type": "function"
    },
    {
      "inputs": [
        {
          "internalType": "address",
          "name": "",
          "type": "address"
        },
        {
          "internalType": "uint256",
          "name": "",
          "type": "uint256"
        },
        {
          "internalType": "uint256",
          "name": "",
          "type": "uint256"
        }
      ],
      "name": "delegates",
      "outputs": [
        {
          "internalType": "address",
          "name": "",
          "type": "address"
        }
      ],
      "stateMutability": "view",
      "type": "function"
    },
    {
      "inputs": [
        {
          "internalType": "uint256",
          "name": "amount",
          "type": "uint256"
        }
      ],
      "name": "deposit",
      "outputs": [],
      "stateMutability": "nonpayable",
      "type": "function"
    },
    {
      "inputs": [
        {
          "internalType": "uint256",
          "name": "propID",
          "type": "uint256"
        }
      ],
      "name": "finishVoting",
      "outputs": [
        {
          "internalType": "bool",
          "name": "",
          "type": "bool"
        }
      ],
      "stateMutability": "nonpayable",
      "type": "function"
    },
    {
      "inputs": [
        {
          "internalType": "uint256",
          "name": "amount",
          "type": "uint256"
        }
      ],
      "name": "gather",
      "outputs": [],
      "stateMutability": "payable",
      "type": "function"
    },
    {
      "inputs": [
        {
          "internalType": "enum CryptonDAO.Decision",
          "name": "_decision",
          "type": "uint8"
        }
      ],
      "name": "getDecisionKeyByValue",
      "outputs": [
        {
          "internalType": "string",
          "name": "",
          "type": "string"
        }
      ],
      "stateMutability": "pure",
      "type": "function"
    },
    {
      "inputs": [
        {
          "internalType": "address",
          "name": "account",
          "type": "address"
        },
        {
          "internalType": "uint256",
          "name": "propID",
          "type": "uint256"
        }
      ],
      "name": "getDelegatesList",
      "outputs": [
        {
          "internalType": "address[]",
          "name": "",
          "type": "address[]"
        }
      ],
      "stateMutability": "view",
      "type": "function"
    },
    {
      "inputs": [
        {
          "internalType": "uint256",
          "name": "start",
          "type": "uint256"
        },
        {
          "internalType": "uint256",
          "name": "end",
          "type": "uint256"
        }
      ],
      "name": "getManyProposals",
      "outputs": [
        {
          "components": [
            {
              "internalType": "uint256",
              "name": "votesFor",
              "type": "uint256"
            },
            {
              "internalType": "uint256",
              "name": "votesAgainst",
              "type": "uint256"
            },
            {
              "internalType": "uint256",
              "name": "createdAt",
              "type": "uint256"
            },
            {
              "internalType": "address",
              "name": "target",
              "type": "address"
            },
            {
              "internalType": "bool",
              "name": "isOpen",
              "type": "bool"
            },
            {
              "internalType": "string",
              "name": "description",
              "type": "string"
            },
            {
              "internalType": "bytes",
              "name": "callData",
              "type": "bytes"
            }
          ],
          "internalType": "struct CryptonDAO.Proposal[]",
          "name": "props",
          "type": "tuple[]"
        }
      ],
      "stateMutability": "view",
      "type": "function"
    },
    {
      "inputs": [
        {
          "internalType": "uint256",
          "name": "propID",
          "type": "uint256"
        },
        {
          "internalType": "address",
          "name": "account",
          "type": "address"
        }
      ],
      "name": "getUserVote",
      "outputs": [
        {
          "components": [
            {
              "internalType": "uint256",
              "name": "weight",
              "type": "uint256"
            },
            {
              "internalType": "uint256",
              "name": "delegateWeight",
              "type": "uint256"
            },
            {
              "internalType": "uint8",
              "name": "decision",
              "type": "uint8"
            },
            {
              "internalType": "address",
              "name": "delegate",
              "type": "address"
            }
          ],
          "internalType": "struct CryptonDAO.Vote",
          "name": "",
          "type": "tuple"
        }
      ],
      "stateMutability": "view",
      "type": "function"
    },
    {
      "inputs": [],
      "name": "numProposals",
      "outputs": [
        {
          "internalType": "uint256",
          "name": "",
          "type": "uint256"
        }
      ],
      "stateMutability": "view",
      "type": "function"
    },
    {
      "inputs": [],
      "name": "owner",
      "outputs": [
        {
          "internalType": "address",
          "name": "",
          "type": "address"
        }
      ],
      "stateMutability": "view",
      "type": "function"
    },
    {
      "inputs": [],
      "name": "passingHold",
      "outputs": [
        {
          "internalType": "uint256",
          "name": "",
          "type": "uint256"
        }
      ],
      "stateMutability": "view",
      "type": "function"
    },
    {
      "inputs": [
        {
          "internalType": "address",
          "name": "",
          "type": "address"
        }
      ],
      "name": "proposaldeposit",
      "outputs": [
        {
          "internalType": "uint256",
          "name": "",
          "type": "uint256"
        }
      ],
      "stateMutability": "view",
      "type": "function"
    },
    {
      "inputs": [],
      "name": "proposaldiposit",
      "outputs": [
        {
          "internalType": "uint256",
          "name": "",
          "type": "uint256"
        }
      ],
      "stateMutability": "view",
      "type": "function"
    },
    {
      "inputs": [
        {
          "internalType": "uint256",
          "name": "",
          "type": "uint256"
        }
      ],
      "name": "proposals",
      "outputs": [
        {
          "internalType": "uint256",
          "name": "votesFor",
          "type": "uint256"
        },
        {
          "internalType": "uint256",
          "name": "votesAgainst",
          "type": "uint256"
        },
        {
          "internalType": "uint256",
          "name": "createdAt",
          "type": "uint256"
        },
        {
          "internalType": "address",
          "name": "target",
          "type": "address"
        },
        {
          "internalType": "bool",
          "name": "isOpen",
          "type": "bool"
        },
        {
          "internalType": "string",
          "name": "description",
          "type": "string"
        },
        {
          "internalType": "bytes",
          "name": "callData",
          "type": "bytes"
        }
      ],
      "stateMutability": "view",
      "type": "function"
    },
    {
      "inputs": [
        {
          "internalType": "address",
          "name": "newmember",
          "type": "address"
        }
      ],
      "name": "removemember",
      "outputs": [],
      "stateMutability": "nonpayable",
      "type": "function"
    },
    {
      "inputs": [],
      "name": "renounceOwnership",
      "outputs": [],
      "stateMutability": "nonpayable",
      "type": "function"
    },
    {
      "inputs": [],
      "name": "token",
      "outputs": [
        {
          "internalType": "address",
          "name": "",
          "type": "address"
        }
      ],
      "stateMutability": "view",
      "type": "function"
    },
    {
      "inputs": [
        {
          "internalType": "address",
          "name": "newOwner",
          "type": "address"
        }
      ],
      "name": "transferOwnership",
      "outputs": [],
      "stateMutability": "nonpayable",
      "type": "function"
    },
    {
      "inputs": [
        {
          "internalType": "uint256",
          "name": "propID",
          "type": "uint256"
        },
        {
          "internalType": "bool",
          "name": "decision",
          "type": "bool"
        }
      ],
      "name": "vote",
      "outputs": [],
      "stateMutability": "nonpayable",
      "type": "function"
    },
    {
      "inputs": [
        {
          "internalType": "uint256",
          "name": "",
          "type": "uint256"
        },
        {
          "internalType": "address",
          "name": "",
          "type": "address"
        }
      ],
      "name": "votes",
      "outputs": [
        {
          "internalType": "uint256",
          "name": "weight",
          "type": "uint256"
        },
        {
          "internalType": "uint256",
          "name": "delegateWeight",
          "type": "uint256"
        },
        {
          "internalType": "uint8",
          "name": "decision",
          "type": "uint8"
        },
        {
          "internalType": "address",
          "name": "delegate",
          "type": "address"
        }
      ],
      "stateMutability": "view",
      "type": "function"
    },
    {
      "inputs": [],
      "name": "votingPeriod",
      "outputs": [
        {
          "internalType": "uint256",
          "name": "",
          "type": "uint256"
        }
      ],
      "stateMutability": "view",
      "type": "function"
    },
    {
      "inputs": [
        {
          "internalType": "uint256",
          "name": "amount",
          "type": "uint256"
        }
      ],
      "name": "withdraw",
      "outputs": [],
      "stateMutability": "nonpayable",
      "type": "function"
    },
    {
      "inputs": [
        {
          "internalType": "address",
          "name": "",
          "type": "address"
        }
      ],
      "name": "withdrawLock",
      "outputs": [
        {
          "internalType": "uint256",
          "name": "",
          "type": "uint256"
        }
      ],
      "stateMutability": "view",
      "type": "function"
    },
    {
      "inputs": [],
      "name": "withdrawProposalDiposit",
      "outputs": [],
      "stateMutability": "nonpayable",
      "type": "function"
    },
    {
      "inputs": [],
      "name": "withdrawgather",
      "outputs": [],
      "stateMutability": "nonpayable",
      "type": "function"
    }
  ],
  "bytecode": "0x60806040523480156200001157600080fd5b50604051620028f0380380620028f08339810160408190526200003491620002c0565b6200003f33620000cf565b8751620000549060069060208b01906200011f565b5085516200006a9060079060208901906200011f565b5060038490558651620000859060089060208a01906200011f565b50600580546001949094556004929092556001600160a81b03199092166101006001600160a01b03959095169490940260ff1916939093179015151790915550620003d192505050565b600080546001600160a01b038381166001600160a01b0319831681178455604051919092169283917f8be0079c531659141344cd1fd0a4f28419497f9722a3daafe3b4186f6b6457e09190a35050565b8280546200012d9062000394565b90600052602060002090601f0160209004810192826200015157600085556200019c565b82601f106200016c57805160ff19168380011785556200019c565b828001600101855582156200019c579182015b828111156200019c5782518255916020019190600101906200017f565b50620001aa929150620001ae565b5090565b5b80821115620001aa5760008155600101620001af565b634e487b7160e01b600052604160045260246000fd5b600082601f830112620001ed57600080fd5b81516001600160401b03808211156200020a576200020a620001c5565b604051601f8301601f19908116603f01168101908282118183101715620002355762000235620001c5565b816040528381526020925086838588010111156200025257600080fd5b600091505b8382101562000276578582018301518183018401529082019062000257565b83821115620002885760008385830101525b9695505050505050565b80516001600160a01b0381168114620002aa57600080fd5b919050565b80518015158114620002aa57600080fd5b600080600080600080600080610100898b031215620002de57600080fd5b88516001600160401b0380821115620002f657600080fd5b620003048c838d01620001db565b995060208b01519150808211156200031b57600080fd5b620003298c838d01620001db565b985060408b01519150808211156200034057600080fd5b506200034f8b828c01620001db565b9650506200036060608a0162000292565b94506080890151935060a0890151925060c089015191506200038560e08a01620002af565b90509295985092959890939650565b600181811c90821680620003a957607f821691505b60208210811415620003cb57634e487b7160e01b600052602260045260246000fd5b50919050565b61250f80620003e16000396000f3fe6080604052600436106101ee5760003560e01c80638da5cb5b1161010d578063c9d27afe116100a0578063dce9ba561161006f578063dce9ba5614610659578063dfbde3fc1461066e578063efe52aeb14610683578063f2fde38b146106a3578063fc0c546a146106c357600080fd5b8063c9d27afe14610560578063cdd0da7c14610580578063d23254b4146105ad578063d3f50b001461063957600080fd5b8063abe7c08e116100dc578063abe7c08e146104c3578063b6b55f25146104f3578063b9f4051b14610513578063bc0e872d1461054057600080fd5b80638da5cb5b1461043c5780638e7e64b81461046e5780639f3ce88e1461049b578063a62cf65d146104b057600080fd5b80632d887bad116101855780634cafeb38116101545780634cafeb38146103d0578063589c5a92146103e5578063715018a6146104125780638191745f1461042757600080fd5b80632d887bad146103645780632e1a7d4d1461037a5780632fdae3c51461039a578063400e3949146103ba57600080fd5b80630636f1b3116101c15780630636f1b3146102d4578063158059e2146103015780632096d2a11461032157806327e235e31461033757600080fd5b8063013cf08b146101f3578063026e402b1461022f57806302a251a31461025157806303c7881a14610275575b600080fd5b3480156101ff57600080fd5b5061021361020e366004611f2c565b6106e8565b6040516102269796959493929190611f9d565b60405180910390f35b34801561023b57600080fd5b5061024f61024a36600461200f565b610847565b005b34801561025d57600080fd5b5061026760015481565b604051908152602001610226565b34801561028157600080fd5b50610295610290366004612039565b61098a565b6040516102269190815181526020808301519082015260408083015160ff16908201526060918201516001600160a01b03169181019190915260800190565b3480156102e057600080fd5b506102f46102ef366004612065565b610a79565b6040516102269190612086565b34801561030d57600080fd5b5061024f61031c366004612099565b610bea565b34801561032d57600080fd5b5061026760045481565b34801561034357600080fd5b506102676103523660046120bb565b600a6020526000908152604090205481565b34801561037057600080fd5b5061026760035481565b34801561038657600080fd5b5061024f610395366004611f2c565b610c5b565b3480156103a657600080fd5b5061024f6103b53660046120ec565b610d8f565b3480156103c657600080fd5b5061026760025481565b3480156103dc57600080fd5b5061024f610ef7565b3480156103f157600080fd5b50610405610400366004612099565b610fc4565b604051610226919061219d565b34801561041e57600080fd5b5061024f611270565b34801561043357600080fd5b506102f46112a4565b34801561044857600080fd5b506000546001600160a01b03165b6040516001600160a01b039091168152602001610226565b34801561047a57600080fd5b5061048e61048936600461200f565b611332565b6040516102269190612266565b3480156104a757600080fd5b506102f46113b1565b61024f6104be366004611f2c565b6113be565b3480156104cf57600080fd5b506104e36104de366004611f2c565b611419565b6040519015158152602001610226565b3480156104ff57600080fd5b5061024f61050e366004611f2c565b611580565b34801561051f57600080fd5b5061026761052e3660046120bb565b600b6020526000908152604090205481565b34801561054c57600080fd5b5061024f61055b3660046120bb565b61163a565b34801561056c57600080fd5b5061024f61057b3660046122c1565b611688565b34801561058c57600080fd5b5061026761059b3660046120bb565b600c6020526000908152604090205481565b3480156105b957600080fd5b506106076105c8366004612039565b600e60209081526000928352604080842090915290825290208054600182015460029092015490919060ff81169061010090046001600160a01b031684565b6040516102269493929190938452602084019290925260ff1660408301526001600160a01b0316606082015260800190565b34801561064557600080fd5b506104566106543660046122f1565b61178c565b34801561066557600080fd5b5061024f6117d1565b34801561067a57600080fd5b506102f46118b8565b34801561068f57600080fd5b5061024f61069e3660046120bb565b6118c5565b3480156106af57600080fd5b5061024f6106be3660046120bb565b611910565b3480156106cf57600080fd5b506005546104569061010090046001600160a01b031681565b600d60205260009081526040902080546001820154600283015460038401546004850180549495939492936001600160a01b03831693600160a01b90930460ff169290919061073690612324565b80601f016020809104026020016040519081016040528092919081815260200182805461076290612324565b80156107af5780601f10610784576101008083540402835291602001916107af565b820191906000526020600020905b81548152906001019060200180831161079257829003601f168201915b5050505050908060050180546107c490612324565b80601f01602080910402602001604051908101604052809291908181526020018280546107f090612324565b801561083d5780601f106108125761010080835404028352916020019161083d565b820191906000526020600020905b81548152906001019060200180831161082057829003601f168201915b5050505050905087565b6000818152600d60209081526040808320600e83528184203385529092529091206002015460ff16156108c15760405162461bcd60e51b815260206004820181905260248201527f416c72656164792070617274696369706174656420696e2070726f706f73616c60448201526064015b60405180910390fd5b6001600160a01b0383163314156109105760405162461bcd60e51b815260206004820152601360248201527243616e27742073656c662d64656c656761746560681b60448201526064016108b8565b426001548260020154610923919061238b565b116109405760405162461bcd60e51b81526004016108b8906123a3565b61094d82336003866119ab565b6040516001600160a01b03841690339084907f4aae9d98faa4137df04104122f887002256b47f839145564826f6551f20df11790600090a4505050565b604080516080810182526000808252602080830182905282840182905260608301829052858252600e81528382206001600160a01b03861683529052919091206002015460ff1660031415610a18576000838152600e602090815260408083206001600160a01b038087168552925290912060020154610a1191859161010090041661098a565b9050610a73565b506000828152600e602090815260408083206001600160a01b038086168552908352928190208151608081018352815481526001820154938101939093526002015460ff811691830191909152610100900490911660608201525b92915050565b60606004826003811115610a8f57610a8f61235f565b60ff161115610acf5760405162461bcd60e51b815260206004820152600c60248201526b556e6b6e6f776e207479706560a01b60448201526064016108b8565b816003811115610ae157610ae161235f565b610b1157505060408051808201909152601081526f139bdd081c185c9d1a58da5c185d195960821b602082015290565b816003811115610b2357610b2361235f565b60011415610b5057505060408051808201909152600981526814dd5c1c1bdc9d195960ba1b602082015290565b816003811115610b6257610b6261235f565b60021415610b9357505060408051808201909152600d81526c139bdd081cdd5c1c1bdc9d1959609a1b602082015290565b816003811115610ba557610ba561235f565b60031415610bd157505060408051808201909152600881526744656c656761746560c01b602082015290565b505060408051602081019091526000815290565b919050565b6000546001600160a01b03163314610c145760405162461bcd60e51b81526004016108b8906123c9565b6001819055600382905560408051838152602081018390527f5068be0b0b16bb579526c1103f009dfb6cf69548fda50fd8ebade4d030fb86f6910160405180910390a15050565b336000908152600c60205260409020544211610cc35760405162461bcd60e51b815260206004820152602160248201527f43616e2774207769746864726177206265666f726520656e64206f6620766f746044820152606560f81b60648201526084016108b8565b336000908152600a6020526040902054811115610d165760405162461bcd60e51b81526020600482015260116024820152704e6f7420656e6f75676820746f6b656e7360781b60448201526064016108b8565b600554610d329061010090046001600160a01b03163383611b51565b336000908152600a602052604081208054839290610d519084906123fe565b909155505060405181815233907f884edad9ce6fa2440d8a54cc123490eb96d2768479d49ff9c7366125a9424364906020015b60405180910390a250565b600480546005546040516370a0823160e01b8152339381019390935290916101009091046001600160a01b0316906370a0823190602401602060405180830381865afa158015610de3573d6000803e3d6000fd5b505050506040513d601f19601f82011682018060405250810190610e079190612415565b11610e435760405162461bcd60e51b815260206004820152600c60248201526b125b9d985b1a5908199d5b9960a21b60448201526064016108b8565b600454600554610e66916101009091046001600160a01b03169033903090611bb9565b60055460ff16610e9857600454336000908152600b602052604081208054909190610e9290849061238b565b90915550505b6002805460009182610ea98361242e565b909155506000818152600d60209081526040909120845192935091610ed691600484019190860190611e93565b5060038101805460ff60a01b1916600160a01b179055426002909101555050565b3360009081526010602052604090205460ff16610f565760405162461bcd60e51b815260206004820152601c60248201527f596f7520617265206e6f7420436f6d6d756e697479204d656d6265720000000060448201526064016108b8565b600060115411610f9b5760405162461bcd60e51b815260206004820152601060248201526f62616c616e63652069732030206e6f7760801b60448201526064016108b8565b60006011819055600554610fc2916101009091046001600160a01b03169030903390611bb9565b565b606060025482106110075760405162461bcd60e51b815260206004820152600d60248201526c496e76616c69642072616e676560981b60448201526064016108b8565b61101282600161238b565b67ffffffffffffffff81111561102a5761102a6120d6565b6040519080825280602002602001820160405280156110a657816020015b6110936040518060e0016040528060008152602001600081526020016000815260200160006001600160a01b0316815260200160001515815260200160608152602001606081525090565b8152602001906001900390816110485790505b509050825b828111611269576000818152600d60209081526040808320815160e0810183528154815260018201549381019390935260028101549183019190915260038101546001600160a01b0381166060840152600160a01b900460ff161515608083015260048101805460a08401919061112190612324565b80601f016020809104026020016040519081016040528092919081815260200182805461114d90612324565b801561119a5780601f1061116f5761010080835404028352916020019161119a565b820191906000526020600020905b81548152906001019060200180831161117d57829003601f168201915b505050505081526020016005820180546111b390612324565b80601f01602080910402602001604051908101604052809291908181526020018280546111df90612324565b801561122c5780601f106112015761010080835404028352916020019161122c565b820191906000526020600020905b81548152906001019060200180831161120f57829003601f168201915b50505050508152505090508083838151811061124a5761124a612449565b60200260200101819052505080806112619061242e565b9150506110ab565b5092915050565b6000546001600160a01b0316331461129a5760405162461bcd60e51b81526004016108b8906123c9565b610fc26000611bf7565b600880546112b190612324565b80601f01602080910402602001604051908101604052809291908181526020018280546112dd90612324565b801561132a5780601f106112ff5761010080835404028352916020019161132a565b820191906000526020600020905b81548152906001019060200180831161130d57829003601f168201915b505050505081565b6001600160a01b0382166000908152600f602090815260408083208484528252918290208054835181840281018401909452808452606093928301828280156113a457602002820191906000526020600020905b81546001600160a01b03168152600190910190602001808311611386575b5050505050905092915050565b600780546112b190612324565b33600090815260096020526040812080548392906113dd90849061238b565b90915550506005546113ff9061010090046001600160a01b0316333084611bb9565b8060116000828254611411919061238b565b909155505050565b6000818152600d602052604081206003810154600160a01b900460ff166114525760405162461bcd60e51b81526004016108b8906123a3565b426001548260020154611465919061238b565b11156114a95760405162461bcd60e51b81526020600482015260136024820152724e65656420746f20776169742033206461797360681b60448201526064016108b8565b6003818101805460ff60a01b19169055815460018301549154600554604080516318160ddd60e01b81529051939493612710939261010090046001600160a01b0316916318160ddd9160048083019260209291908290030181865afa158015611516573d6000803e3d6000fd5b505050506040513d601f19601f8201168201806040525081019061153a9190612415565b611544919061245f565b61154e919061247e565b611558828461238b565b1015801561156557508082115b1561157557506001949350505050565b506000949350505050565b600081116115c75760405162461bcd60e51b8152602060048201526014602482015273416d6f756e742063616e2774206265207a65726f60601b60448201526064016108b8565b6005546115e49061010090046001600160a01b0316333084611bb9565b336000908152600a60205260408120805483929061160390849061238b565b909155505060405181815233907fe1fffcc4923d04b559f4d29a8bfc6cda04eb5b0d3c460751c2402c5c5cc9109c90602001610d84565b6000546001600160a01b031633146116645760405162461bcd60e51b81526004016108b8906123c9565b6001600160a01b03166000908152601060205260409020805460ff19166001179055565b6000828152600d60205260409020600154600282015442916116a99161238b565b116116c65760405162461bcd60e51b81526004016108b8906123a3565b6000838152600e6020908152604080832033845290915290206002015460ff16156117335760405162461bcd60e51b815260206004820181905260248201527f416c72656164792070617274696369706174656420696e2070726f706f73616c60448201526064016108b8565b61174e833384611744576002611747565b60015b60006119ab565b6040518215158152339084907ff2913dbe661ee2acc4a046d8fbcdc792373bda34c41c6086484b5345e5785e5f9060200160405180910390a3505050565b600f60205282600052604060002060205281600052604060002081815481106117b457600080fd5b6000918252602090912001546001600160a01b0316925083915050565b336000908152600b60205260409020546118235760405162461bcd60e51b81526020600482015260136024820152724e6f2066756e6420746f20776974686472617760681b60448201526064016108b8565b60055460ff16156118695760405162461bcd60e51b815260206004820152601060248201526f165bdd4818d85b89dd081c99599d5b9960821b60448201526064016108b8565b336000818152600b6020526040902054600554611895926101009091046001600160a01b031691611b51565b336000908152600b602052604081208054916118b183806123fe565b9091555050565b600680546112b190612324565b6000546001600160a01b031633146118ef5760405162461bcd60e51b81526004016108b8906123c9565b6001600160a01b03166000908152601060205260409020805460ff19169055565b6000546001600160a01b0316331461193a5760405162461bcd60e51b81526004016108b8906123c9565b6001600160a01b03811661199f5760405162461bcd60e51b815260206004820152602660248201527f4f776e61626c653a206e6577206f776e657220697320746865207a65726f206160448201526564647265737360d01b60648201526084016108b8565b6119a881611bf7565b50565b6000848152600d60209081526040808320600e83528184206001600160a01b03881685528352818420600a90935292205460ff851660011415611a185780825560018201546119fa908261238b565b836000016000828254611a0d919061238b565b90915550611ad89050565b60ff851660021415611a49578082556001820154611a36908261238b565b836001016000828254611a0d919061238b565b6001600160a01b038481166000818152600f602090815260408083208c845282528083208054600180820183559185528385200180546001600160a01b031916968d1696909617909555600287018054610100600160a81b03191661010086021790558b8352600e82528083209383529290529081209091018054839290611ad290849061238b565b90915550505b6002828101805460ff191660ff8816179055336000908152600c6020526040902054600154918501549091611b0c9161238b565b11611b2657336000908152600c6020526040902054611b38565b6001548360020154611b38919061238b565b336000908152600c602052604090205550505050505050565b6040516001600160a01b038316602482015260448101829052611bb490849063a9059cbb60e01b906064015b60408051601f198184030181529190526020810180516001600160e01b03166001600160e01b031990931692909217909152611c47565b505050565b6040516001600160a01b0380851660248301528316604482015260648101829052611bf19085906323b872dd60e01b90608401611b7d565b50505050565b600080546001600160a01b038381166001600160a01b0319831681178455604051919092169283917f8be0079c531659141344cd1fd0a4f28419497f9722a3daafe3b4186f6b6457e09190a35050565b6000611c9c826040518060400160405280602081526020017f5361666545524332303a206c6f772d6c6576656c2063616c6c206661696c6564815250856001600160a01b0316611d199092919063ffffffff16565b805190915015611bb45780806020019051810190611cba91906124a0565b611bb45760405162461bcd60e51b815260206004820152602a60248201527f5361666545524332303a204552433230206f7065726174696f6e20646964206e6044820152691bdd081cdd58d8d9595960b21b60648201526084016108b8565b6060611d288484600085611d32565b90505b9392505050565b606082471015611d935760405162461bcd60e51b815260206004820152602660248201527f416464726573733a20696e73756666696369656e742062616c616e636520666f6044820152651c8818d85b1b60d21b60648201526084016108b8565b843b611de15760405162461bcd60e51b815260206004820152601d60248201527f416464726573733a2063616c6c20746f206e6f6e2d636f6e747261637400000060448201526064016108b8565b600080866001600160a01b03168587604051611dfd91906124bd565b60006040518083038185875af1925050503d8060008114611e3a576040519150601f19603f3d011682016040523d82523d6000602084013e611e3f565b606091505b5091509150611e4f828286611e5a565b979650505050505050565b60608315611e69575081611d2b565b825115611e795782518084602001fd5b8160405162461bcd60e51b81526004016108b89190612086565b828054611e9f90612324565b90600052602060002090601f016020900481019282611ec15760008555611f07565b82601f10611eda57805160ff1916838001178555611f07565b82800160010185558215611f07579182015b82811115611f07578251825591602001919060010190611eec565b50611f13929150611f17565b5090565b5b80821115611f135760008155600101611f18565b600060208284031215611f3e57600080fd5b5035919050565b60005b83811015611f60578181015183820152602001611f48565b83811115611bf15750506000910152565b60008151808452611f89816020860160208601611f45565b601f01601f19169290920160200192915050565b87815286602082015285604082015260018060a01b0385166060820152831515608082015260e060a08201526000611fd860e0830185611f71565b82810360c0840152611fea8185611f71565b9a9950505050505050505050565b80356001600160a01b0381168114610be557600080fd5b6000806040838503121561202257600080fd5b61202b83611ff8565b946020939093013593505050565b6000806040838503121561204c57600080fd5b8235915061205c60208401611ff8565b90509250929050565b60006020828403121561207757600080fd5b813560048110611d2b57600080fd5b602081526000611d2b6020830184611f71565b600080604083850312156120ac57600080fd5b50508035926020909101359150565b6000602082840312156120cd57600080fd5b611d2b82611ff8565b634e487b7160e01b600052604160045260246000fd5b6000602082840312156120fe57600080fd5b813567ffffffffffffffff8082111561211657600080fd5b818401915084601f83011261212a57600080fd5b81358181111561213c5761213c6120d6565b604051601f8201601f19908116603f01168101908382118183101715612164576121646120d6565b8160405282815287602084870101111561217d57600080fd5b826020860160208301376000928101602001929092525095945050505050565b60006020808301818452808551808352604092508286019150828160051b87010184880160005b8381101561225857888303603f19018552815180518452878101518885015286810151878501526060808201516001600160a01b03169085015260808082015115159085015260a08082015160e0828701819052919061222683880182611f71565b9250505060c080830151925085820381870152506122448183611f71565b9689019694505050908601906001016121c4565b509098975050505050505050565b6020808252825182820181905260009190848201906040850190845b818110156122a75783516001600160a01b031683529284019291840191600101612282565b50909695505050505050565b80151581146119a857600080fd5b600080604083850312156122d457600080fd5b8235915060208301356122e6816122b3565b809150509250929050565b60008060006060848603121561230657600080fd5b61230f84611ff8565b95602085013595506040909401359392505050565b600181811c9082168061233857607f821691505b6020821081141561235957634e487b7160e01b600052602260045260246000fd5b50919050565b634e487b7160e01b600052602160045260246000fd5b634e487b7160e01b600052601160045260246000fd5b6000821982111561239e5761239e612375565b500190565b6020808252600c908201526b159bdd1a5b99c8195b99195960a21b604082015260600190565b6020808252818101527f4f776e61626c653a2063616c6c6572206973206e6f7420746865206f776e6572604082015260600190565b60008282101561241057612410612375565b500390565b60006020828403121561242757600080fd5b5051919050565b600060001982141561244257612442612375565b5060010190565b634e487b7160e01b600052603260045260246000fd5b600081600019048311821515161561247957612479612375565b500290565b60008261249b57634e487b7160e01b600052601260045260246000fd5b500490565b6000602082840312156124b257600080fd5b8151611d2b816122b3565b600082516124cf818460208701611f45565b919091019291505056fea26469706673582212209fc4470f5849d1adf2623cd841a5b739d06d9b1762e2dab3cef7927e9d6e22c764736f6c634300080a0033",
  "linkReferences": {},
  "deployedLinkReferences": {}
}