{
  "_format": "hh-sol-artifact-1",
  "contractName": "DAOFactory",
  "sourceName": "contracts/DAOfactor.sol",
  "abi": [
    {
      "inputs": [
        {
          "internalType": "address",
          "name": "",
          "type": "address"
        }
      ],
      "name": "contractAddresses",
      "outputs": [
        {
          "internalType": "address",
          "name": "",
          "type": "address"
        }
      ],
      "stateMutability": "view",
      "type": "function"
    },
    {
      "inputs": [],
      "name": "contractCount",
      "outputs": [
        {
          "internalType": "uint256",
          "name": "",
          "type": "uint256"
        }
      ],
      "stateMutability": "view",
      "type": "function"
    },
    {
      "inputs": [
        {
          "internalType": "string",
          "name": "_name",
          "type": "string"
        },
        {
          "internalType": "string",
          "name": "_description",
          "type": "string"
        },
        {
          "internalType": "string",
          "name": "_imageURL",
          "type": "string"
        },
        {
          "internalType": "string",
          "name": "_tokenname",
          "type": "string"
        },
        {
          "internalType": "string",
          "name": "_tokensymbol",
          "type": "string"
        },
        {
          "internalType": "uint256",
          "name": "_initialsupply",
          "type": "uint256"
        },
        {
          "internalType": "uint256",
          "name": "_minQuorum",
          "type": "uint256"
        },
        {
          "internalType": "uint256",
          "name": "_votingduration",
          "type": "uint256"
        },
        {
          "internalType": "uint256",
          "name": "proposaldiposit",
          "type": "uint256"
        },
        {
          "internalType": "bool",
          "name": "refundfail",
          "type": "bool"
        }
      ],
      "name": "createContract",
      "outputs": [],
      "stateMutability": "nonpayable",
      "type": "function"
    },
    {
      "inputs": [],
      "name": "getContractCount",
      "outputs": [
        {
          "internalType": "uint256",
          "name": "",
          "type": "uint256"
        }
      ],
      "stateMutability": "view",
      "type": "function"
    },
    {
      "inputs": [],
      "name": "getMyContract",
      "outputs": [
        {
          "internalType": "address",
          "name": "",
          "type": "address"
        }
      ],
      "stateMutability": "view",
      "type": "function"
    },
    {
      "inputs": [],
      "name": "getTokenContract",
      "outputs": [
        {
          "internalType": "address",
          "name": "",
          "type": "address"
        }
      ],
      "stateMutability": "view",
      "type": "function"
    },
    {
      "inputs": [
        {
          "internalType": "address",
          "name": "",
          "type": "address"
        }
      ],
      "name": "tokenAddresses",
      "outputs": [
        {
          "internalType": "address",
          "name": "",
          "type": "address"
        }
      ],
      "stateMutability": "view",
      "type": "function"
    }
  ],
  "bytecode": "0x608060405234801561001057600080fd5b50614da0806100206000396000f3fe60806040523480156200001157600080fd5b5060043610620000875760003560e01c80638736381a11620000625780638736381a14620000e95780639399869d1462000102578063b6d3385e146200010b578063dd031e83146200013757600080fd5b806328b7bede146200008c5780634661ac9514620000b35780635c41a1c414620000df575b600080fd5b6200009662000150565b6040516001600160a01b0390911681526020015b60405180910390f35b62000096620000c436600462000339565b6000602081905290815260409020546001600160a01b031681565b6200009662000190565b620000f360025481565b604051908152602001620000aa565b600254620000f3565b620000966200011c36600462000339565b6001602052600090815260409020546001600160a01b031681565b6200014e620001483660046200042c565b620001d0565b005b336000908152600160205260408120546001600160a01b03166200017357600080fd5b50336000908152600160205260409020546001600160a01b031690565b336000908152602081905260408120546001600160a01b0316620001b357600080fd5b50336000908152602081905260409020546001600160a01b031690565b6000878787604051620001e3906200031d565b620001f19392919062000599565b604051809103906000f0801580156200020e573d6000803e3d6000fd5b50905060008b8b8b848989898960405162000229906200032b565b6200023c989796959493929190620005d3565b604051809103906000f08015801562000259573d6000803e3d6000fd5b5060405163f2fde38b60e01b81523360048201529091506001600160a01b0382169063f2fde38b90602401600060405180830381600087803b1580156200029f57600080fd5b505af1158015620002b4573d6000803e3d6000fd5b50503360009081526020818152604080832080546001600160a01b038089166001600160a01b031992831617909255600190935290832080549188169190921617905560028054935091506200030a836200064c565b9190505550505050505050505050505050565b611fb0806200067783390190565b612744806200262783390190565b6000602082840312156200034c57600080fd5b81356001600160a01b03811681146200036457600080fd5b9392505050565b634e487b7160e01b600052604160045260246000fd5b600082601f8301126200039357600080fd5b813567ffffffffffffffff80821115620003b157620003b16200036b565b604051601f8301601f19908116603f01168101908282118183101715620003dc57620003dc6200036b565b81604052838152866020858801011115620003f657600080fd5b836020870160208301376000602085830101528094505050505092915050565b803580151581146200042757600080fd5b919050565b6000806000806000806000806000806101408b8d0312156200044d57600080fd5b8a3567ffffffffffffffff808211156200046657600080fd5b620004748e838f0162000381565b9b5060208d01359150808211156200048b57600080fd5b620004998e838f0162000381565b9a5060408d0135915080821115620004b057600080fd5b620004be8e838f0162000381565b995060608d0135915080821115620004d557600080fd5b620004e38e838f0162000381565b985060808d0135915080821115620004fa57600080fd5b50620005098d828e0162000381565b96505060a08b0135945060c08b0135935060e08b013592506101008b01359150620005386101208c0162000416565b90509295989b9194979a5092959850565b6000815180845260005b81811015620005715760208185018101518683018201520162000553565b8181111562000584576000602083870101525b50601f01601f19169290920160200192915050565b606081526000620005ae606083018662000549565b8281036020840152620005c2818662000549565b915050826040830152949350505050565b6000610100808352620005e98184018c62000549565b90508281036020840152620005ff818b62000549565b9050828103604084015262000615818a62000549565b6001600160a01b039890981660608401525050608081019490945260a084019290925260c0830152151560e0909101529392505050565b60006000198214156200066f57634e487b7160e01b600052601160045260246000fd5b506001019056fe60806040523480156200001157600080fd5b5060405162001fb038038062001fb08339810160408190526200003491620005b4565b8251839083906200004d90600390602085019062000441565b5080516200006390600490602084019062000441565b505050620000806200007a6200009560201b60201c565b62000099565b6200008c3382620000eb565b505050620006f4565b3390565b600680546001600160a01b038381166001600160a01b0319831681179093556040519116919082907f8be0079c531659141344cd1fd0a4f28419497f9722a3daafe3b4186f6b6457e090600090a35050565b6001600160a01b038216620001475760405162461bcd60e51b815260206004820152601f60248201527f45524332303a206d696e7420746f20746865207a65726f20616464726573730060448201526064015b60405180910390fd5b6200015560008383620001d1565b80600260008282546200016991906200063d565b90915550506001600160a01b03821660009081526020819052604081208054839290620001989084906200063d565b90915550506040518181526001600160a01b0383169060009060008051602062001f908339815191529060200160405180910390a35050565b6001600160a01b0383166000908152600a602052604090205460ff161580156200020357506001600160a01b03831615155b80156200021857506001600160a01b03821615155b15620002dc5760006127106007548362000233919062000658565b6200023f91906200067a565b90506200024d81836200063d565b6001600160a01b0385166000908152602081905260409020541015620002b65760405162461bcd60e51b815260206004820152601560248201527f4e6f7420656e6f75676820746f2070617920666565000000000000000000000060448201526064016200013e565b620002c28482620002e1565b600854620002da906001600160a01b031682620000eb565b505b505050565b6001600160a01b038216620003435760405162461bcd60e51b815260206004820152602160248201527f45524332303a206275726e2066726f6d20746865207a65726f206164647265736044820152607360f81b60648201526084016200013e565b6200035182600083620001d1565b6001600160a01b03821660009081526020819052604090205481811015620003c75760405162461bcd60e51b815260206004820152602260248201527f45524332303a206275726e20616d6f756e7420657863656564732062616c616e604482015261636560f01b60648201526084016200013e565b6001600160a01b0383166000908152602081905260408120838303905560028054849290620003f89084906200069d565b90915550506040518281526000906001600160a01b0385169060008051602062001f908339815191529060200160405180910390a3620002dc836000846001600160e01b038416565b8280546200044f90620006b7565b90600052602060002090601f016020900481019282620004735760008555620004be565b82601f106200048e57805160ff1916838001178555620004be565b82800160010185558215620004be579182015b82811115620004be578251825591602001919060010190620004a1565b50620004cc929150620004d0565b5090565b5b80821115620004cc5760008155600101620004d1565b634e487b7160e01b600052604160045260246000fd5b600082601f8301126200050f57600080fd5b81516001600160401b03808211156200052c576200052c620004e7565b604051601f8301601f19908116603f01168101908282118183101715620005575762000557620004e7565b816040528381526020925086838588010111156200057457600080fd5b600091505b8382101562000598578582018301518183018401529082019062000579565b83821115620005aa5760008385830101525b9695505050505050565b600080600060608486031215620005ca57600080fd5b83516001600160401b0380821115620005e257600080fd5b620005f087838801620004fd565b945060208601519150808211156200060757600080fd5b506200061686828701620004fd565b925050604084015190509250925092565b634e487b7160e01b600052601160045260246000fd5b6000821982111562000653576200065362000627565b500190565b600081600019048311821515161562000675576200067562000627565b500290565b6000826200069857634e487b7160e01b600052601260045260246000fd5b500490565b600082821015620006b257620006b262000627565b500390565b600181811c90821680620006cc57607f821691505b60208210811415620006ee57634e487b7160e01b600052602260045260246000fd5b50919050565b61188c80620007046000396000f3fe608060405234801561001057600080fd5b50600436106101f05760003560e01c8063715018a61161010f578063a457c2d7116100a2578063d547741f11610071578063d547741f14610444578063dd62ed3e14610457578063e43252d714610490578063f2fde38b146104a357600080fd5b8063a457c2d7146103f8578063a9059cbb1461040b578063affca9321461041e578063c4d66de81461043157600080fd5b806391d14854116100de57806391d14854146103c257806395d89b41146103d55780639dc29fac146103dd578063a217fddf146103f057600080fd5b8063715018a61461038e57806384e5eed0146103965780638ab1d6811461039e5780638da5cb5b146103b157600080fd5b8063313ce5671161018757806340c10f191161015657806340c10f19146103165780634162169f146103295780634ccb20c01461035457806370a082311461036557600080fd5b8063313ce567146102b557806336568abe146102c457806339509351146102d75780633af32abf146102ea57600080fd5b806323604071116101c3578063236040711461025757806323b872dd1461026c578063248a9ca31461027f5780632f2ff15d146102a257600080fd5b806301ffc9a7146101f557806306fdde031461021d578063095ea7b31461023257806318160ddd14610245575b600080fd5b610208610203366004611513565b6104b6565b60405190151581526020015b60405180910390f35b6102256104ed565b6040516102149190611569565b6102086102403660046115b8565b61057f565b6002545b604051908152602001610214565b61026a6102653660046115e2565b610595565b005b61020861027a3660046115fd565b61061f565b61024961028d366004611639565b60009081526005602052604090206001015490565b61026a6102b0366004611652565b6106c9565b60405160128152602001610214565b61026a6102d2366004611652565b6106f4565b6102086102e53660046115b8565b610772565b6102086102f83660046115e2565b6001600160a01b03166000908152600a602052604090205460ff1690565b61026a6103243660046115b8565b6107ae565b60095461033c906001600160a01b031681565b6040516001600160a01b039091168152602001610214565b6008546001600160a01b031661033c565b6102496103733660046115e2565b6001600160a01b031660009081526020819052604090205490565b61026a6107e2565b600754610249565b61026a6103ac3660046115e2565b610818565b6006546001600160a01b031661033c565b6102086103d0366004611652565b610895565b6102256108c0565b61026a6103eb3660046115b8565b6108cf565b610249600081565b6102086104063660046115b8565b610903565b6102086104193660046115b8565b61099c565b61026a61042c366004611639565b6109a9565b61026a61043f3660046115e2565b610a0a565b61026a610452366004611652565b610a56565b61024961046536600461167e565b6001600160a01b03918216600090815260016020908152604080832093909416825291909152205490565b61026a61049e3660046115e2565b610a7c565b61026a6104b13660046115e2565b610afc565b60006001600160e01b03198216637965db0b60e01b14806104e757506301ffc9a760e01b6001600160e01b03198316145b92915050565b6060600380546104fc906116a8565b80601f0160208091040260200160405190810160405280929190818152602001828054610528906116a8565b80156105755780601f1061054a57610100808354040283529160200191610575565b820191906000526020600020905b81548152906001019060200180831161055857829003601f168201915b5050505050905090565b600061058c338484610b97565b50600192915050565b6006546001600160a01b031633146105c85760405162461bcd60e51b81526004016105bf906116e3565b60405180910390fd5b600880546001600160a01b0319166001600160a01b03831690811790915560405190815233907f3a08b1c0f89bbe22ae6458a334ff95ccecc840f266c286f188cf29e31f7061ad906020015b60405180910390a250565b600061062c848484610cbb565b6001600160a01b0384166000908152600160209081526040808320338452909152902054828110156106b15760405162461bcd60e51b815260206004820152602860248201527f45524332303a207472616e7366657220616d6f756e74206578636565647320616044820152676c6c6f77616e636560c01b60648201526084016105bf565b6106be8533858403610b97565b506001949350505050565b6000828152600560205260409020600101546106e58133610e96565b6106ef8383610efa565b505050565b6001600160a01b03811633146107645760405162461bcd60e51b815260206004820152602f60248201527f416363657373436f6e74726f6c3a2063616e206f6e6c792072656e6f756e636560448201526e103937b632b9903337b91039b2b63360891b60648201526084016105bf565b61076e8282610f80565b5050565b3360008181526001602090815260408083206001600160a01b0387168452909152812054909161058c9185906107a990869061172e565b610b97565b6006546001600160a01b031633146107d85760405162461bcd60e51b81526004016105bf906116e3565b61076e8282610fe7565b6006546001600160a01b0316331461080c5760405162461bcd60e51b81526004016105bf906116e3565b61081660006110d2565b565b6006546001600160a01b031633146108425760405162461bcd60e51b81526004016105bf906116e3565b6001600160a01b0381166000818152600a6020908152604091829020805460ff19169055905191825233917fd69d323ec27eb997f9c9466b0c1f1f37d65382a7caeee9c9cacaf093d6d0bb579101610614565b60009182526005602090815260408084206001600160a01b0393909316845291905290205460ff1690565b6060600480546104fc906116a8565b6006546001600160a01b031633146108f95760405162461bcd60e51b81526004016105bf906116e3565b61076e8282611124565b3360009081526001602090815260408083206001600160a01b0386168452909152812054828110156109855760405162461bcd60e51b815260206004820152602560248201527f45524332303a2064656372656173656420616c6c6f77616e63652062656c6f77604482015264207a65726f60d81b60648201526084016105bf565b6109923385858403610b97565b5060019392505050565b600061058c338484610cbb565b6006546001600160a01b031633146109d35760405162461bcd60e51b81526004016105bf906116e3565b600781905560405181815233907ff8eccecbad8e0a650eaf97155186f2edac8af95165cfe8f4fcb7e11ea9693efd90602001610614565b6006546001600160a01b03163314610a345760405162461bcd60e51b81526004016105bf906116e3565b600980546001600160a01b0319166001600160a01b0392909216919091179055565b600082815260056020526040902060010154610a728133610e96565b6106ef8383610f80565b6006546001600160a01b03163314610aa65760405162461bcd60e51b81526004016105bf906116e3565b6001600160a01b0381166000818152600a6020908152604091829020805460ff19166001179055905191825233917f1d579ce37763c9894e144fe60df6d85b0eaa341ed20bcb7045de4a9327eb51159101610614565b6006546001600160a01b03163314610b265760405162461bcd60e51b81526004016105bf906116e3565b6001600160a01b038116610b8b5760405162461bcd60e51b815260206004820152602660248201527f4f776e61626c653a206e6577206f776e657220697320746865207a65726f206160448201526564647265737360d01b60648201526084016105bf565b610b94816110d2565b50565b6001600160a01b038316610bf95760405162461bcd60e51b8152602060048201526024808201527f45524332303a20617070726f76652066726f6d20746865207a65726f206164646044820152637265737360e01b60648201526084016105bf565b6001600160a01b038216610c5a5760405162461bcd60e51b815260206004820152602260248201527f45524332303a20617070726f766520746f20746865207a65726f206164647265604482015261737360f01b60648201526084016105bf565b6001600160a01b0383811660008181526001602090815260408083209487168084529482529182902085905590518481527f8c5be1e5ebec7d5bd14f71427d1e84f3dd0314c0f7b2291e5b200ac8c7c3b925910160405180910390a3505050565b6001600160a01b038316610d1f5760405162461bcd60e51b815260206004820152602560248201527f45524332303a207472616e736665722066726f6d20746865207a65726f206164604482015264647265737360d81b60648201526084016105bf565b6001600160a01b038216610d815760405162461bcd60e51b815260206004820152602360248201527f45524332303a207472616e7366657220746f20746865207a65726f206164647260448201526265737360e81b60648201526084016105bf565b610d8c83838361127e565b6001600160a01b03831660009081526020819052604090205481811015610e045760405162461bcd60e51b815260206004820152602660248201527f45524332303a207472616e7366657220616d6f756e7420657863656564732062604482015265616c616e636560d01b60648201526084016105bf565b6001600160a01b03808516600090815260208190526040808220858503905591851681529081208054849290610e3b90849061172e565b92505081905550826001600160a01b0316846001600160a01b03167fddf252ad1be2c89b69c2b068fc378daa952ba7f163c4a11628f55a4df523b3ef84604051610e8791815260200190565b60405180910390a35b50505050565b610ea08282610895565b61076e57610eb8816001600160a01b03166014611370565b610ec3836020611370565b604051602001610ed4929190611746565b60408051601f198184030181529082905262461bcd60e51b82526105bf91600401611569565b610f048282610895565b61076e5760008281526005602090815260408083206001600160a01b03851684529091529020805460ff19166001179055610f3c3390565b6001600160a01b0316816001600160a01b0316837f2f8788117e7eff1d82e926ec794901d17c78024a50270940304540a733656f0d60405160405180910390a45050565b610f8a8282610895565b1561076e5760008281526005602090815260408083206001600160a01b0385168085529252808320805460ff1916905551339285917ff6391f5c32d9c69d2a47ea670b442974b53935d1edc7fd64eb21e047a839171b9190a45050565b6001600160a01b03821661103d5760405162461bcd60e51b815260206004820152601f60248201527f45524332303a206d696e7420746f20746865207a65726f20616464726573730060448201526064016105bf565b6110496000838361127e565b806002600082825461105b919061172e565b90915550506001600160a01b0382166000908152602081905260408120805483929061108890849061172e565b90915550506040518181526001600160a01b038316906000907fddf252ad1be2c89b69c2b068fc378daa952ba7f163c4a11628f55a4df523b3ef9060200160405180910390a35050565b600680546001600160a01b038381166001600160a01b0319831681179093556040519116919082907f8be0079c531659141344cd1fd0a4f28419497f9722a3daafe3b4186f6b6457e090600090a35050565b6001600160a01b0382166111845760405162461bcd60e51b815260206004820152602160248201527f45524332303a206275726e2066726f6d20746865207a65726f206164647265736044820152607360f81b60648201526084016105bf565b6111908260008361127e565b6001600160a01b038216600090815260208190526040902054818110156112045760405162461bcd60e51b815260206004820152602260248201527f45524332303a206275726e20616d6f756e7420657863656564732062616c616e604482015261636560f01b60648201526084016105bf565b6001600160a01b03831660009081526020819052604081208383039055600280548492906112339084906117bb565b90915550506040518281526000906001600160a01b038516907fddf252ad1be2c89b69c2b068fc378daa952ba7f163c4a11628f55a4df523b3ef9060200160405180910390a3505050565b6001600160a01b0383166000908152600a602052604090205460ff161580156112af57506001600160a01b03831615155b80156112c357506001600160a01b03821615155b156106ef576000612710600754836112db91906117d2565b6112e591906117f1565b90506112f1818361172e565b6001600160a01b03851660009081526020819052604090205410156113505760405162461bcd60e51b81526020600482015260156024820152744e6f7420656e6f75676820746f207061792066656560581b60448201526064016105bf565b61135a8482611124565b600854610e90906001600160a01b031682610fe7565b6060600061137f8360026117d2565b61138a90600261172e565b67ffffffffffffffff8111156113a2576113a2611813565b6040519080825280601f01601f1916602001820160405280156113cc576020820181803683370190505b509050600360fc1b816000815181106113e7576113e7611829565b60200101906001600160f81b031916908160001a905350600f60fb1b8160018151811061141657611416611829565b60200101906001600160f81b031916908160001a905350600061143a8460026117d2565b61144590600161172e565b90505b60018111156114bd576f181899199a1a9b1b9c1cb0b131b232b360811b85600f166010811061147957611479611829565b1a60f81b82828151811061148f5761148f611829565b60200101906001600160f81b031916908160001a90535060049490941c936114b68161183f565b9050611448565b50831561150c5760405162461bcd60e51b815260206004820181905260248201527f537472696e67733a20686578206c656e67746820696e73756666696369656e7460448201526064016105bf565b9392505050565b60006020828403121561152557600080fd5b81356001600160e01b03198116811461150c57600080fd5b60005b83811015611558578181015183820152602001611540565b83811115610e905750506000910152565b602081526000825180602084015261158881604085016020870161153d565b601f01601f19169190910160400192915050565b80356001600160a01b03811681146115b357600080fd5b919050565b600080604083850312156115cb57600080fd5b6115d48361159c565b946020939093013593505050565b6000602082840312156115f457600080fd5b61150c8261159c565b60008060006060848603121561161257600080fd5b61161b8461159c565b92506116296020850161159c565b9150604084013590509250925092565b60006020828403121561164b57600080fd5b5035919050565b6000806040838503121561166557600080fd5b823591506116756020840161159c565b90509250929050565b6000806040838503121561169157600080fd5b61169a8361159c565b91506116756020840161159c565b600181811c908216806116bc57607f821691505b602082108114156116dd57634e487b7160e01b600052602260045260246000fd5b50919050565b6020808252818101527f4f776e61626c653a2063616c6c6572206973206e6f7420746865206f776e6572604082015260600190565b634e487b7160e01b600052601160045260246000fd5b6000821982111561174157611741611718565b500190565b7f416363657373436f6e74726f6c3a206163636f756e742000000000000000000081526000835161177e81601785016020880161153d565b7001034b99036b4b9b9b4b733903937b6329607d1b60179184019182015283516117af81602884016020880161153d565b01602801949350505050565b6000828210156117cd576117cd611718565b500390565b60008160001904831182151516156117ec576117ec611718565b500290565b60008261180e57634e487b7160e01b600052601260045260246000fd5b500490565b634e487b7160e01b600052604160045260246000fd5b634e487b7160e01b600052603260045260246000fd5b60008161184e5761184e611718565b50600019019056fea2646970667358221220fcc5a6b7e0b5da3257b722a33ffd66c8cd350608fc1adf022d70d0a3b4c743f864736f6c634300080a0033ddf252ad1be2c89b69c2b068fc378daa952ba7f163c4a11628f55a4df523b3ef60806040523480156200001157600080fd5b5060405162002744380380620027448339810160408190526200003491620002c0565b6200003f33620000cf565b8751620000549060069060208b01906200011f565b5085516200006a9060079060208901906200011f565b5060038490558651620000859060089060208a01906200011f565b50600580546001949094556004929092556001600160a81b03199092166101006001600160a01b03959095169490940260ff1916939093179015151790915550620003d192505050565b600080546001600160a01b038381166001600160a01b0319831681178455604051919092169283917f8be0079c531659141344cd1fd0a4f28419497f9722a3daafe3b4186f6b6457e09190a35050565b8280546200012d9062000394565b90600052602060002090601f0160209004810192826200015157600085556200019c565b82601f106200016c57805160ff19168380011785556200019c565b828001600101855582156200019c579182015b828111156200019c5782518255916020019190600101906200017f565b50620001aa929150620001ae565b5090565b5b80821115620001aa5760008155600101620001af565b634e487b7160e01b600052604160045260246000fd5b600082601f830112620001ed57600080fd5b81516001600160401b03808211156200020a576200020a620001c5565b604051601f8301601f19908116603f01168101908282118183101715620002355762000235620001c5565b816040528381526020925086838588010111156200025257600080fd5b600091505b8382101562000276578582018301518183018401529082019062000257565b83821115620002885760008385830101525b9695505050505050565b80516001600160a01b0381168114620002aa57600080fd5b919050565b80518015158114620002aa57600080fd5b600080600080600080600080610100898b031215620002de57600080fd5b88516001600160401b0380821115620002f657600080fd5b620003048c838d01620001db565b995060208b01519150808211156200031b57600080fd5b620003298c838d01620001db565b985060408b01519150808211156200034057600080fd5b506200034f8b828c01620001db565b9650506200036060608a0162000292565b94506080890151935060a0890151925060c089015191506200038560e08a01620002af565b90509295985092959890939650565b600181811c90821680620003a957607f821691505b60208210811415620003cb57634e487b7160e01b600052602260045260246000fd5b50919050565b61236380620003e16000396000f3fe608060405234801561001057600080fd5b50600436106101c45760003560e01c80638e7e64b8116100f9578063d23254b411610097578063dfbde3fc11610071578063dfbde3fc1461047e578063e5671eec14610486578063f2fde38b14610499578063fc0c546a146104ac57600080fd5b8063d23254b4146103e4578063d3f50b0014610463578063dce9ba561461047657600080fd5b8063b6b55f25116100d3578063b6b55f251461037e578063b9f4051b14610391578063c9d27afe146103b1578063cdd0da7c146103c457600080fd5b80638e7e64b8146103435780639f3ce88e14610363578063abe7c08e1461036b57600080fd5b80632d887bad11610166578063589c5a9211610140578063589c5a92146102ee578063715018a61461030e5780638191745f146103165780638da5cb5b1461031e57600080fd5b80632d887bad146102c95780632e1a7d4d146102d2578063400e3949146102e557600080fd5b806303c7881a116101a257806303c7881a146102245780630636f1b314610276578063158059e21461029657806327e235e3146102a957600080fd5b8063013cf08b146101c9578063026e402b146101f857806302a251a31461020d575b600080fd5b6101dc6101d7366004611d1c565b6104c4565b6040516101ef9796959493929190611d8d565b60405180910390f35b61020b610206366004611dff565b610623565b005b61021660015481565b6040519081526020016101ef565b610237610232366004611e29565b610766565b6040516101ef9190815181526020808301519082015260408083015160ff16908201526060918201516001600160a01b03169181019190915260800190565b610289610284366004611e55565b610855565b6040516101ef9190611e76565b61020b6102a4366004611e89565b6109c6565b6102166102b7366004611eab565b60096020526000908152604090205481565b61021660035481565b61020b6102e0366004611d1c565b610a37565b61021660025481565b6103016102fc366004611e89565b610b6b565b6040516101ef9190611ec6565b61020b610e17565b610289610e4d565b6000546001600160a01b03165b6040516001600160a01b0390911681526020016101ef565b610356610351366004611dff565b610edb565b6040516101ef9190611f8f565b610289610f5a565b61020b610379366004611d1c565b610f67565b61020b61038c366004611d1c565b6111d3565b61021661039f366004611eab565b600a6020526000908152604090205481565b61020b6103bf366004611fea565b61128d565b6102166103d2366004611eab565b600b6020526000908152604090205481565b6104316103f2366004611e29565b600d60209081526000928352604080842090915290825290208054600182015460029092015490919060ff81169061010090046001600160a01b031684565b6040516101ef9493929190938452602084019290925260ff1660408301526001600160a01b0316606082015260800190565b61032b61047136600461201a565b611391565b61020b6113d6565b6102896114bd565b6102166104943660046120d9565b6114ca565b61020b6104a7366004611eab565b61169e565b60055461032b9061010090046001600160a01b031681565b600c60205260009081526040902080546001820154600283015460038401546004850180549495939492936001600160a01b03831693600160a01b90930460ff169290919061051290612178565b80601f016020809104026020016040519081016040528092919081815260200182805461053e90612178565b801561058b5780601f106105605761010080835404028352916020019161058b565b820191906000526020600020905b81548152906001019060200180831161056e57829003601f168201915b5050505050908060050180546105a090612178565b80601f01602080910402602001604051908101604052809291908181526020018280546105cc90612178565b80156106195780601f106105ee57610100808354040283529160200191610619565b820191906000526020600020905b8154815290600101906020018083116105fc57829003601f168201915b5050505050905087565b6000818152600c60209081526040808320600d83528184203385529092529091206002015460ff161561069d5760405162461bcd60e51b815260206004820181905260248201527f416c72656164792070617274696369706174656420696e2070726f706f73616c60448201526064015b60405180910390fd5b6001600160a01b0383163314156106ec5760405162461bcd60e51b815260206004820152601360248201527243616e27742073656c662d64656c656761746560681b6044820152606401610694565b4260015482600201546106ff91906121df565b1161071c5760405162461bcd60e51b8152600401610694906121f7565b6107298233600386611739565b6040516001600160a01b03841690339084907f4aae9d98faa4137df04104122f887002256b47f839145564826f6551f20df11790600090a4505050565b604080516080810182526000808252602080830182905282840182905260608301829052858252600d81528382206001600160a01b03861683529052919091206002015460ff16600314156107f4576000838152600d602090815260408083206001600160a01b0380871685529252909120600201546107ed918591610100900416610766565b905061084f565b506000828152600d602090815260408083206001600160a01b038086168552908352928190208151608081018352815481526001820154938101939093526002015460ff811691830191909152610100900490911660608201525b92915050565b6060600482600381111561086b5761086b6121b3565b60ff1611156108ab5760405162461bcd60e51b815260206004820152600c60248201526b556e6b6e6f776e207479706560a01b6044820152606401610694565b8160038111156108bd576108bd6121b3565b6108ed57505060408051808201909152601081526f139bdd081c185c9d1a58da5c185d195960821b602082015290565b8160038111156108ff576108ff6121b3565b6001141561092c57505060408051808201909152600981526814dd5c1c1bdc9d195960ba1b602082015290565b81600381111561093e5761093e6121b3565b6002141561096f57505060408051808201909152600d81526c139bdd081cdd5c1c1bdc9d1959609a1b602082015290565b816003811115610981576109816121b3565b600314156109ad57505060408051808201909152600881526744656c656761746560c01b602082015290565b505060408051602081019091526000815290565b919050565b6000546001600160a01b031633146109f05760405162461bcd60e51b81526004016106949061221d565b6001819055600382905560408051838152602081018390527f5068be0b0b16bb579526c1103f009dfb6cf69548fda50fd8ebade4d030fb86f6910160405180910390a15050565b336000908152600b60205260409020544211610a9f5760405162461bcd60e51b815260206004820152602160248201527f43616e2774207769746864726177206265666f726520656e64206f6620766f746044820152606560f81b6064820152608401610694565b33600090815260096020526040902054811115610af25760405162461bcd60e51b81526020600482015260116024820152704e6f7420656e6f75676820746f6b656e7360781b6044820152606401610694565b600554610b0e9061010090046001600160a01b031633836118df565b3360009081526009602052604081208054839290610b2d908490612252565b909155505060405181815233907f884edad9ce6fa2440d8a54cc123490eb96d2768479d49ff9c7366125a9424364906020015b60405180910390a250565b60606002548210610bae5760405162461bcd60e51b815260206004820152600d60248201526c496e76616c69642072616e676560981b6044820152606401610694565b610bb98260016121df565b67ffffffffffffffff811115610bd157610bd161204d565b604051908082528060200260200182016040528015610c4d57816020015b610c3a6040518060e0016040528060008152602001600081526020016000815260200160006001600160a01b0316815260200160001515815260200160608152602001606081525090565b815260200190600190039081610bef5790505b509050825b828111610e10576000818152600c60209081526040808320815160e0810183528154815260018201549381019390935260028101549183019190915260038101546001600160a01b0381166060840152600160a01b900460ff161515608083015260048101805460a084019190610cc890612178565b80601f0160208091040260200160405190810160405280929190818152602001828054610cf490612178565b8015610d415780601f10610d1657610100808354040283529160200191610d41565b820191906000526020600020905b815481529060010190602001808311610d2457829003601f168201915b50505050508152602001600582018054610d5a90612178565b80601f0160208091040260200160405190810160405280929190818152602001828054610d8690612178565b8015610dd35780601f10610da857610100808354040283529160200191610dd3565b820191906000526020600020905b815481529060010190602001808311610db657829003601f168201915b505050505081525050905080838381518110610df157610df1612269565b6020026020010181905250508080610e089061227f565b915050610c52565b5092915050565b6000546001600160a01b03163314610e415760405162461bcd60e51b81526004016106949061221d565b610e4b6000611947565b565b60088054610e5a90612178565b80601f0160208091040260200160405190810160405280929190818152602001828054610e8690612178565b8015610ed35780601f10610ea857610100808354040283529160200191610ed3565b820191906000526020600020905b815481529060010190602001808311610eb657829003601f168201915b505050505081565b6001600160a01b0382166000908152600e60209081526040808320848452825291829020805483518184028101840190945280845260609392830182828015610f4d57602002820191906000526020600020905b81546001600160a01b03168152600190910190602001808311610f2f575b5050505050905092915050565b60078054610e5a90612178565b6000818152600c602052604090206003810154600160a01b900460ff16610fa05760405162461bcd60e51b8152600401610694906121f7565b426001548260020154610fb391906121df565b1115610ff75760405162461bcd60e51b81526020600482015260136024820152724e65656420746f20776169742033206461797360681b6044820152606401610694565b6003818101805460ff60a01b19169055815460018301549154600554604080516318160ddd60e01b81529051939493612710939261010090046001600160a01b0316916318160ddd9160048083019260209291908290030181865afa158015611064573d6000803e3d6000fd5b505050506040513d601f19601f82011682018060405250810190611088919061229a565b61109291906122b3565b61109c91906122d2565b6110a682846121df565b101580156110b357508082115b1561119657837fb5debc2edd758982f14e28c8678605ac21cbefda6d102fe9e1bf85830837067e61117e8560050180546110ec90612178565b80601f016020809104026020016040519081016040528092919081815260200182805461111890612178565b80156111655780601f1061113a57610100808354040283529160200191611165565b820191906000526020600020905b81548152906001019060200180831161114857829003601f168201915b5050505060038801546001600160a01b03169050611997565b604051901515815260200160405180910390a26111cd565b6040516000815284907fb5debc2edd758982f14e28c8678605ac21cbefda6d102fe9e1bf85830837067e9060200160405180910390a25b50505050565b6000811161121a5760405162461bcd60e51b8152602060048201526014602482015273416d6f756e742063616e2774206265207a65726f60601b6044820152606401610694565b6005546112379061010090046001600160a01b03163330846119ff565b33600090815260096020526040812080548392906112569084906121df565b909155505060405181815233907fe1fffcc4923d04b559f4d29a8bfc6cda04eb5b0d3c460751c2402c5c5cc9109c90602001610b60565b6000828152600c60205260409020600154600282015442916112ae916121df565b116112cb5760405162461bcd60e51b8152600401610694906121f7565b6000838152600d6020908152604080832033845290915290206002015460ff16156113385760405162461bcd60e51b815260206004820181905260248201527f416c72656164792070617274696369706174656420696e2070726f706f73616c6044820152606401610694565b61135383338461134957600261134c565b60015b6000611739565b6040518215158152339084907ff2913dbe661ee2acc4a046d8fbcdc792373bda34c41c6086484b5345e5785e5f9060200160405180910390a3505050565b600e60205282600052604060002060205281600052604060002081815481106113b957600080fd5b6000918252602090912001546001600160a01b0316925083915050565b336000908152600a60205260409020546114285760405162461bcd60e51b81526020600482015260136024820152724e6f2066756e6420746f20776974686472617760681b6044820152606401610694565b60055460ff161561146e5760405162461bcd60e51b815260206004820152601060248201526f165bdd4818d85b89dd081c99599d5b9960821b6044820152606401610694565b336000818152600a602052604090205460055461149a926101009091046001600160a01b0316916118df565b336000908152600a602052604081208054916114b68380612252565b9091555050565b60068054610e5a90612178565b600480546005546040516370a0823160e01b815233938101939093526000926101009091046001600160a01b0316906370a0823190602401602060405180830381865afa15801561151f573d6000803e3d6000fd5b505050506040513d601f19601f82011682018060405250810190611543919061229a565b1161157f5760405162461bcd60e51b815260206004820152600c60248201526b125b9d985b1a5908199d5b9960a21b6044820152606401610694565b6004546005546115a0916101009091046001600160a01b03169033906118df565b60055460ff166115d257600454336000908152600a6020526040812080549091906115cc9084906121df565b90915550505b600280549060006115e28361227f565b909155506000818152600c6020908152604090912086519293509161160f91600484019190880190611c83565b506003810180546001600160a81b0319166001600160a01b03861617600160a01b17905582516116489060058301906020860190611c83565b504260028201556040516001600160a01b03851690339084907f94c121c95b232ca071da63db23301453955ad9a83a91d61f50fa0aef0697b49b9061168e908a90611e76565b60405180910390a4509392505050565b6000546001600160a01b031633146116c85760405162461bcd60e51b81526004016106949061221d565b6001600160a01b03811661172d5760405162461bcd60e51b815260206004820152602660248201527f4f776e61626c653a206e6577206f776e657220697320746865207a65726f206160448201526564647265737360d01b6064820152608401610694565b61173681611947565b50565b6000848152600c60209081526040808320600d83528184206001600160a01b03881685528352818420600990935292205460ff8516600114156117a657808255600182015461178890826121df565b83600001600082825461179b91906121df565b909155506118669050565b60ff8516600214156117d75780825560018201546117c490826121df565b83600101600082825461179b91906121df565b6001600160a01b038481166000818152600e602090815260408083208c845282528083208054600180820183559185528385200180546001600160a01b031916968d1696909617909555600287018054610100600160a81b03191661010086021790558b8352600d825280832093835292905290812090910180548392906118609084906121df565b90915550505b6002828101805460ff191660ff8816179055336000908152600b602052604090205460015491850154909161189a916121df565b116118b457336000908152600b60205260409020546118c6565b60015483600201546118c691906121df565b336000908152600b602052604090205550505050505050565b6040516001600160a01b03831660248201526044810182905261194290849063a9059cbb60e01b906064015b60408051601f198184030181529190526020810180516001600160e01b03166001600160e01b031990931692909217909152611a37565b505050565b600080546001600160a01b038381166001600160a01b0319831681178455604051919092169283917f8be0079c531659141344cd1fd0a4f28419497f9722a3daafe3b4186f6b6457e09190a35050565b600080826001600160a01b0316846040516119b291906122f4565b6000604051808303816000865af19150503d80600081146119ef576040519150601f19603f3d011682016040523d82523d6000602084013e6119f4565b606091505b509095945050505050565b6040516001600160a01b03808516602483015283166044820152606481018290526111cd9085906323b872dd60e01b9060840161190b565b6000611a8c826040518060400160405280602081526020017f5361666545524332303a206c6f772d6c6576656c2063616c6c206661696c6564815250856001600160a01b0316611b099092919063ffffffff16565b8051909150156119425780806020019051810190611aaa9190612310565b6119425760405162461bcd60e51b815260206004820152602a60248201527f5361666545524332303a204552433230206f7065726174696f6e20646964206e6044820152691bdd081cdd58d8d9595960b21b6064820152608401610694565b6060611b188484600085611b22565b90505b9392505050565b606082471015611b835760405162461bcd60e51b815260206004820152602660248201527f416464726573733a20696e73756666696369656e742062616c616e636520666f6044820152651c8818d85b1b60d21b6064820152608401610694565b843b611bd15760405162461bcd60e51b815260206004820152601d60248201527f416464726573733a2063616c6c20746f206e6f6e2d636f6e74726163740000006044820152606401610694565b600080866001600160a01b03168587604051611bed91906122f4565b60006040518083038185875af1925050503d8060008114611c2a576040519150601f19603f3d011682016040523d82523d6000602084013e611c2f565b606091505b5091509150611c3f828286611c4a565b979650505050505050565b60608315611c59575081611b1b565b825115611c695782518084602001fd5b8160405162461bcd60e51b81526004016106949190611e76565b828054611c8f90612178565b90600052602060002090601f016020900481019282611cb15760008555611cf7565b82601f10611cca57805160ff1916838001178555611cf7565b82800160010185558215611cf7579182015b82811115611cf7578251825591602001919060010190611cdc565b50611d03929150611d07565b5090565b5b80821115611d035760008155600101611d08565b600060208284031215611d2e57600080fd5b5035919050565b60005b83811015611d50578181015183820152602001611d38565b838111156111cd5750506000910152565b60008151808452611d79816020860160208601611d35565b601f01601f19169290920160200192915050565b87815286602082015285604082015260018060a01b0385166060820152831515608082015260e060a08201526000611dc860e0830185611d61565b82810360c0840152611dda8185611d61565b9a9950505050505050505050565b80356001600160a01b03811681146109c157600080fd5b60008060408385031215611e1257600080fd5b611e1b83611de8565b946020939093013593505050565b60008060408385031215611e3c57600080fd5b82359150611e4c60208401611de8565b90509250929050565b600060208284031215611e6757600080fd5b813560048110611b1b57600080fd5b602081526000611b1b6020830184611d61565b60008060408385031215611e9c57600080fd5b50508035926020909101359150565b600060208284031215611ebd57600080fd5b611b1b82611de8565b60006020808301818452808551808352604092508286019150828160051b87010184880160005b83811015611f8157888303603f19018552815180518452878101518885015286810151878501526060808201516001600160a01b03169085015260808082015115159085015260a08082015160e08287018190529190611f4f83880182611d61565b9250505060c08083015192508582038187015250611f6d8183611d61565b968901969450505090860190600101611eed565b509098975050505050505050565b6020808252825182820181905260009190848201906040850190845b81811015611fd05783516001600160a01b031683529284019291840191600101611fab565b50909695505050505050565b801515811461173657600080fd5b60008060408385031215611ffd57600080fd5b82359150602083013561200f81611fdc565b809150509250929050565b60008060006060848603121561202f57600080fd5b61203884611de8565b95602085013595506040909401359392505050565b634e487b7160e01b600052604160045260246000fd5b600067ffffffffffffffff8084111561207e5761207e61204d565b604051601f8501601f19908116603f011681019082821181831017156120a6576120a661204d565b816040528093508581528686860111156120bf57600080fd5b858560208301376000602087830101525050509392505050565b6000806000606084860312156120ee57600080fd5b833567ffffffffffffffff8082111561210657600080fd5b818601915086601f83011261211a57600080fd5b61212987833560208501612063565b945061213760208701611de8565b9350604086013591508082111561214d57600080fd5b508401601f8101861361215f57600080fd5b61216e86823560208401612063565b9150509250925092565b600181811c9082168061218c57607f821691505b602082108114156121ad57634e487b7160e01b600052602260045260246000fd5b50919050565b634e487b7160e01b600052602160045260246000fd5b634e487b7160e01b600052601160045260246000fd5b600082198211156121f2576121f26121c9565b500190565b6020808252600c908201526b159bdd1a5b99c8195b99195960a21b604082015260600190565b6020808252818101527f4f776e61626c653a2063616c6c6572206973206e6f7420746865206f776e6572604082015260600190565b600082821015612264576122646121c9565b500390565b634e487b7160e01b600052603260045260246000fd5b6000600019821415612293576122936121c9565b5060010190565b6000602082840312156122ac57600080fd5b5051919050565b60008160001904831182151516156122cd576122cd6121c9565b500290565b6000826122ef57634e487b7160e01b600052601260045260246000fd5b500490565b60008251612306818460208701611d35565b9190910192915050565b60006020828403121561232257600080fd5b8151611b1b81611fdc56fea26469706673582212201f52379c20ec098193ceff1d5dc02538e0c71bf9444ce1728b75f5ba3f846b6564736f6c634300080a0033a264697066735822122028f036d4f1f7a5fd78b68372d690a34d8e5bfbfa701c4294050e81f87fb5c33264736f6c634300080a0033",
  "linkReferences": {},
  "deployedLinkReferences": {}
}